{
  "contractName": "Exchange",
  "abi": [
    {
      "inputs": [
        {
          "internalType": "address",
          "name": "_token",
          "type": "address"
        },
        {
          "internalType": "uint256",
          "name": "_price",
          "type": "uint256"
        }
      ],
      "stateMutability": "nonpayable",
      "type": "constructor"
    },
    {
      "anonymous": false,
      "inputs": [
        {
          "indexed": false,
          "internalType": "uint256",
          "name": "amount",
          "type": "uint256"
        }
      ],
      "name": "Bought",
      "type": "event"
    },
    {
      "anonymous": false,
      "inputs": [
        {
          "indexed": false,
          "internalType": "uint256",
          "name": "amount",
          "type": "uint256"
        }
      ],
      "name": "Sold",
      "type": "event"
    },
    {
      "inputs": [],
      "name": "price",
      "outputs": [
        {
          "internalType": "uint256",
          "name": "",
          "type": "uint256"
        }
      ],
      "stateMutability": "view",
      "type": "function"
    },
    {
      "inputs": [],
      "name": "token",
      "outputs": [
        {
          "internalType": "address",
          "name": "",
          "type": "address"
        }
      ],
      "stateMutability": "view",
      "type": "function"
    },
    {
      "inputs": [
        {
          "internalType": "uint256",
          "name": "numTokens",
          "type": "uint256"
        }
      ],
      "name": "buy",
      "outputs": [],
      "stateMutability": "payable",
      "type": "function"
    },
    {
      "inputs": [
        {
          "internalType": "uint256",
          "name": "amount",
          "type": "uint256"
        }
      ],
      "name": "sell",
      "outputs": [],
      "stateMutability": "nonpayable",
      "type": "function"
    }
  ],
  "bytecode": "0x608060405234801561001057600080fd5b5060405161076938038061076983398101604081905261002f91610066565b60028054336001600160a01b031991821617909155600080549091166001600160a01b0393909316929092179091556001556100a0565b6000806040838503121561007957600080fd5b82516001600160a01b038116811461009057600080fd5b6020939093015192949293505050565b6106ba806100af6000396000f3fe60806040526004361061003f5760003560e01c8063a035b1fe14610044578063d96a094a1461006d578063e4849b3214610082578063fc0c546a146100a2575b600080fd5b34801561005057600080fd5b5061005a60015481565b6040519081526020015b60405180910390f35b61008061007b3660046105c4565b6100da565b005b34801561008e57600080fd5b5061008061009d3660046105c4565b610314565b3480156100ae57600080fd5b506000546100c2906001600160a01b031681565b6040516001600160a01b039091168152602001610064565b6100e681600154610586565b34146101505760405162461bcd60e51b815260206004820152602e60248201527f436865636b2070726963652070657220746f6b656e20616e642073656e64206160448201526d70706f727072696174652077656960901b60648201526084015b60405180910390fd5b600080546040516370a0823160e01b81523060048201526001600160a01b03909116906370a0823190602401602060405180830381865afa158015610199573d6000803e3d6000fd5b505050506040513d601f19601f820116820180604052508101906101bd91906105dd565b90506000821161020f5760405162461bcd60e51b815260206004820152601b60248201527f596f75206e65656420746f2073656e6420736f6d6520657468657200000000006044820152606401610147565b8082111561025f5760405162461bcd60e51b815260206004820181905260248201527f4e6f7420656e6f75676820746f6b656e7320696e2074686520726573657276656044820152606401610147565b60005460405163a9059cbb60e01b8152336004820152602481018490526001600160a01b039091169063a9059cbb906044016020604051808303816000875af11580156102b0573d6000803e3d6000fd5b505050506040513d601f19601f820116820180604052508101906102d491906105f6565b6102dd57600080fd5b6040518281527f4e08ba899977cf7d4c2964bce71c6b9a7ef76ee5166a4c1249a1e08016e33ef19060200160405180910390a15050565b600081116103725760405162461bcd60e51b815260206004820152602560248201527f596f75206e65656420746f2073656c6c206174206c6561737420736f6d6520746044820152646f6b656e7360d81b6064820152608401610147565b60008054604051636eb1769f60e11b81523360048201523060248201526001600160a01b039091169063dd62ed3e90604401602060405180830381865afa1580156103c1573d6000803e3d6000fd5b505050506040513d601f19601f820116820180604052508101906103e591906105dd565b9050818110156104375760405162461bcd60e51b815260206004820152601960248201527f436865636b2074686520746f6b656e20616c6c6f77616e6365000000000000006044820152606401610147565b6000479050600061044a84600154610586565b905081811061049b5760405162461bcd60e51b815260206004820152601b60248201527f4e6f7420656e6f7567682062616c616e636520776974682044455800000000006044820152606401610147565b6000546040516323b872dd60e01b8152336004820152306024820152604481018690526001600160a01b03909116906323b872dd906064016020604051808303816000875af11580156104f2573d6000803e3d6000fd5b505050506040513d601f19601f8201168201806040525081019061051691906105f6565b61051f57600080fd5b604051339082156108fc029083906000818181858888f1935050505015801561054c573d6000803e3d6000fd5b506040518481527f92f64ca637d023f354075a4be751b169c1a8a9ccb6d33cdd0cb35205439957279060200160405180910390a150505050565b600082610595575060006105be565b60006105a1838561061f565b9050826105ae858361064c565b146105bb576105bb61066e565b90505b92915050565b6000602082840312156105d657600080fd5b5035919050565b6000602082840312156105ef57600080fd5b5051919050565b60006020828403121561060857600080fd5b8151801515811461061857600080fd5b9392505050565b600081600019048311821515161561064757634e487b7160e01b600052601160045260246000fd5b500290565b60008261066957634e487b7160e01b600052601260045260246000fd5b500490565b634e487b7160e01b600052600160045260246000fdfea2646970667358221220a159ded24552b60d2ff518414a45a917bed7ff4818d588bf87d69623ba3e1d9764736f6c634300080b0033",
  "immutableReferences": {},
  "source": "// SPDX-License-Identifier: MIT\r\npragma solidity ^0.8.6;\r\nimport \"./GovToken.sol\";\r\n\r\ncontract Exchange {\r\n    address public token;\r\n    uint256 public price;              // the price, in wei, per token\r\n    address owner;\r\n    \r\n    event Bought(uint256 amount);\r\n    event Sold(uint256 amount);\r\n    \r\n    constructor(address _token, uint256 _price) {\r\n        owner = msg.sender;\r\n        token =_token;\r\n        price = _price;\r\n    }\r\n    \r\n    function buy(uint numTokens) payable public {\r\n        require(msg.value == safeMultiply(numTokens, price), \"Check price per token and send apporpriate wei\");\r\n        uint256 dexBalance = GovToken(token).balanceOf(address(this));\r\n        require(numTokens > 0, \"You need to send some ether\");\r\n        require(numTokens <= dexBalance, \"Not enough tokens in the reserve\");\r\n        require(GovToken(token).transfer(msg.sender, numTokens));\r\n        emit Bought(numTokens);\r\n    }\r\n\r\n    function sell(uint256 amount) public {\r\n        require(amount > 0, \"You need to sell at least some tokens\");\r\n        uint256 allowance = GovToken(token).allowance(msg.sender, address(this));\r\n        require(allowance >= amount, \"Check the token allowance\");\r\n        uint256 balanceInWei = address(this).balance;\r\n        uint256 weiToSend = safeMultiply(amount, price);\r\n        require(weiToSend < balanceInWei, \"Not enough balance with DEX\");\r\n        require(GovToken(token).transferFrom(msg.sender, address(this), amount));\r\n        payable(msg.sender).transfer(weiToSend);\r\n        emit Sold(amount);\r\n    }\r\n    \r\n    // Guards against integer overflows\r\n    function safeMultiply(uint256 a, uint256 b) internal pure returns (uint256) {\r\n        if (a == 0) {\r\n            return 0;\r\n        } else {\r\n            uint256 c = a * b;\r\n            assert(c / a == b);\r\n            return c;\r\n        }\r\n    }\r\n}",
  "sourcePath": "C:\\Users\\AKASH\\Desktop\\AK\\Academics\\SEMVII\\BTC\\Project\\gov-dapp2\\governance-dapp\\contracts\\Exchange.sol",
  "compiler": {
    "name": "solc",
    "version": "0.8.11+commit.d7f03943.Emscripten.clang"
  },
  "schemaVersion": "3.4.3",
  "updatedAt": "2022-01-02T06:54:11.097Z",
  "devdoc": {
    "kind": "dev",
    "methods": {},
    "version": 1
  },
  "userdoc": {
    "kind": "user",
    "methods": {},
    "version": 1
  }
}