{
  "contractName": "GovToken",
  "abi": [
    {
      "inputs": [],
      "stateMutability": "nonpayable",
      "type": "constructor"
    },
    {
      "anonymous": false,
      "inputs": [
        {
          "indexed": true,
          "internalType": "address",
          "name": "tokenOwner",
          "type": "address"
        },
        {
          "indexed": true,
          "internalType": "address",
          "name": "spender",
          "type": "address"
        },
        {
          "indexed": false,
          "internalType": "uint256",
          "name": "tokens",
          "type": "uint256"
        }
      ],
      "name": "Approval",
      "type": "event"
    },
    {
      "anonymous": false,
      "inputs": [
        {
          "indexed": false,
          "internalType": "uint256",
          "name": "id",
          "type": "uint256"
        },
        {
          "indexed": false,
          "internalType": "address",
          "name": "proposer",
          "type": "address"
        },
        {
          "indexed": false,
          "internalType": "string",
          "name": "description",
          "type": "string"
        },
        {
          "indexed": false,
          "internalType": "string",
          "name": "title",
          "type": "string"
        },
        {
          "indexed": false,
          "internalType": "uint256",
          "name": "dateOfCreation",
          "type": "uint256"
        }
      ],
      "name": "ProposalCreated",
      "type": "event"
    },
    {
      "anonymous": false,
      "inputs": [
        {
          "indexed": true,
          "internalType": "address",
          "name": "from",
          "type": "address"
        },
        {
          "indexed": true,
          "internalType": "address",
          "name": "to",
          "type": "address"
        },
        {
          "indexed": false,
          "internalType": "uint256",
          "name": "tokens",
          "type": "uint256"
        }
      ],
      "name": "Transfer",
      "type": "event"
    },
    {
      "anonymous": false,
      "inputs": [
        {
          "indexed": false,
          "internalType": "address",
          "name": "voter",
          "type": "address"
        },
        {
          "indexed": false,
          "internalType": "uint256",
          "name": "proposalId",
          "type": "uint256"
        },
        {
          "indexed": false,
          "internalType": "bool",
          "name": "support",
          "type": "bool"
        },
        {
          "indexed": false,
          "internalType": "uint256",
          "name": "votes",
          "type": "uint256"
        }
      ],
      "name": "VoteCast",
      "type": "event"
    },
    {
      "inputs": [],
      "name": "creator",
      "outputs": [
        {
          "internalType": "address",
          "name": "",
          "type": "address"
        }
      ],
      "stateMutability": "view",
      "type": "function",
      "constant": true
    },
    {
      "inputs": [],
      "name": "decimals",
      "outputs": [
        {
          "internalType": "uint8",
          "name": "",
          "type": "uint8"
        }
      ],
      "stateMutability": "view",
      "type": "function",
      "constant": true
    },
    {
      "inputs": [],
      "name": "exchangeAddress",
      "outputs": [
        {
          "internalType": "address",
          "name": "",
          "type": "address"
        }
      ],
      "stateMutability": "view",
      "type": "function",
      "constant": true
    },
    {
      "inputs": [],
      "name": "name",
      "outputs": [
        {
          "internalType": "string",
          "name": "",
          "type": "string"
        }
      ],
      "stateMutability": "view",
      "type": "function",
      "constant": true
    },
    {
      "inputs": [],
      "name": "proposalCount",
      "outputs": [
        {
          "internalType": "uint256",
          "name": "",
          "type": "uint256"
        }
      ],
      "stateMutability": "view",
      "type": "function",
      "constant": true
    },
    {
      "inputs": [
        {
          "internalType": "uint256",
          "name": "",
          "type": "uint256"
        }
      ],
      "name": "proposals",
      "outputs": [
        {
          "internalType": "uint256",
          "name": "id",
          "type": "uint256"
        },
        {
          "internalType": "address",
          "name": "proposer",
          "type": "address"
        },
        {
          "internalType": "uint256",
          "name": "forVotes",
          "type": "uint256"
        },
        {
          "internalType": "uint256",
          "name": "againstVotes",
          "type": "uint256"
        },
        {
          "internalType": "bool",
          "name": "canceled",
          "type": "bool"
        },
        {
          "internalType": "bool",
          "name": "announced",
          "type": "bool"
        },
        {
          "internalType": "uint256",
          "name": "voterCount",
          "type": "uint256"
        },
        {
          "internalType": "string",
          "name": "description",
          "type": "string"
        },
        {
          "internalType": "string",
          "name": "title",
          "type": "string"
        },
        {
          "internalType": "uint256",
          "name": "dateOfCreation",
          "type": "uint256"
        },
        {
          "internalType": "uint256",
          "name": "date",
          "type": "uint256"
        },
        {
          "internalType": "uint256",
          "name": "deadlineForVoting",
          "type": "uint256"
        }
      ],
      "stateMutability": "view",
      "type": "function",
      "constant": true
    },
    {
      "inputs": [],
      "name": "symbol",
      "outputs": [
        {
          "internalType": "string",
          "name": "",
          "type": "string"
        }
      ],
      "stateMutability": "view",
      "type": "function",
      "constant": true
    },
    {
      "inputs": [],
      "name": "totalSupply",
      "outputs": [
        {
          "internalType": "uint256",
          "name": "",
          "type": "uint256"
        }
      ],
      "stateMutability": "view",
      "type": "function",
      "constant": true
    },
    {
      "inputs": [
        {
          "internalType": "address",
          "name": "tokenOwner",
          "type": "address"
        }
      ],
      "name": "balanceOf",
      "outputs": [
        {
          "internalType": "uint256",
          "name": "",
          "type": "uint256"
        }
      ],
      "stateMutability": "view",
      "type": "function",
      "constant": true
    },
    {
      "inputs": [
        {
          "internalType": "address",
          "name": "tokenOwner",
          "type": "address"
        }
      ],
      "name": "lockedOf",
      "outputs": [
        {
          "internalType": "uint256",
          "name": "",
          "type": "uint256"
        }
      ],
      "stateMutability": "view",
      "type": "function",
      "constant": true
    },
    {
      "inputs": [
        {
          "internalType": "address",
          "name": "receiver",
          "type": "address"
        },
        {
          "internalType": "uint256",
          "name": "numTokens",
          "type": "uint256"
        }
      ],
      "name": "transfer",
      "outputs": [
        {
          "internalType": "bool",
          "name": "",
          "type": "bool"
        }
      ],
      "stateMutability": "nonpayable",
      "type": "function"
    },
    {
      "inputs": [
        {
          "internalType": "address",
          "name": "delegate",
          "type": "address"
        },
        {
          "internalType": "uint256",
          "name": "numTokens",
          "type": "uint256"
        }
      ],
      "name": "approve",
      "outputs": [
        {
          "internalType": "bool",
          "name": "",
          "type": "bool"
        }
      ],
      "stateMutability": "nonpayable",
      "type": "function"
    },
    {
      "inputs": [
        {
          "internalType": "address",
          "name": "owner",
          "type": "address"
        },
        {
          "internalType": "address",
          "name": "delegate",
          "type": "address"
        }
      ],
      "name": "allowance",
      "outputs": [
        {
          "internalType": "uint256",
          "name": "",
          "type": "uint256"
        }
      ],
      "stateMutability": "view",
      "type": "function",
      "constant": true
    },
    {
      "inputs": [
        {
          "internalType": "address",
          "name": "owner",
          "type": "address"
        },
        {
          "internalType": "address",
          "name": "receiver",
          "type": "address"
        },
        {
          "internalType": "uint256",
          "name": "numTokens",
          "type": "uint256"
        }
      ],
      "name": "transferFrom",
      "outputs": [
        {
          "internalType": "bool",
          "name": "",
          "type": "bool"
        }
      ],
      "stateMutability": "nonpayable",
      "type": "function"
    },
    {
      "inputs": [
        {
          "internalType": "uint256",
          "name": "numTokens",
          "type": "uint256"
        }
      ],
      "name": "mint",
      "outputs": [],
      "stateMutability": "nonpayable",
      "type": "function"
    },
    {
      "inputs": [
        {
          "internalType": "uint256",
          "name": "numTokens",
          "type": "uint256"
        }
      ],
      "name": "burn",
      "outputs": [],
      "stateMutability": "nonpayable",
      "type": "function"
    },
    {
      "inputs": [],
      "name": "quorumVotes",
      "outputs": [
        {
          "internalType": "uint256",
          "name": "",
          "type": "uint256"
        }
      ],
      "stateMutability": "pure",
      "type": "function",
      "constant": true
    },
    {
      "inputs": [
        {
          "internalType": "string",
          "name": "title",
          "type": "string"
        },
        {
          "internalType": "string",
          "name": "description",
          "type": "string"
        }
      ],
      "name": "propose",
      "outputs": [],
      "stateMutability": "nonpayable",
      "type": "function"
    },
    {
      "inputs": [
        {
          "internalType": "uint256",
          "name": "proposalId",
          "type": "uint256"
        },
        {
          "internalType": "address",
          "name": "voter",
          "type": "address"
        }
      ],
      "name": "getReceipt",
      "outputs": [
        {
          "components": [
            {
              "internalType": "bool",
              "name": "hasVoted",
              "type": "bool"
            },
            {
              "internalType": "bool",
              "name": "support",
              "type": "bool"
            },
            {
              "internalType": "uint256",
              "name": "votes",
              "type": "uint256"
            }
          ],
          "internalType": "struct GovToken.Receipt",
          "name": "",
          "type": "tuple"
        }
      ],
      "stateMutability": "view",
      "type": "function",
      "constant": true
    },
    {
      "inputs": [
        {
          "internalType": "uint256",
          "name": "proposalId",
          "type": "uint256"
        }
      ],
      "name": "state",
      "outputs": [
        {
          "internalType": "enum GovToken.ProposalState",
          "name": "",
          "type": "uint8"
        }
      ],
      "stateMutability": "view",
      "type": "function",
      "constant": true
    },
    {
      "inputs": [
        {
          "internalType": "uint256",
          "name": "proposalId",
          "type": "uint256"
        },
        {
          "internalType": "bool",
          "name": "support",
          "type": "bool"
        },
        {
          "internalType": "uint256",
          "name": "votes",
          "type": "uint256"
        }
      ],
      "name": "castVote",
      "outputs": [],
      "stateMutability": "nonpayable",
      "type": "function"
    },
    {
      "inputs": [
        {
          "internalType": "uint256",
          "name": "proposalId",
          "type": "uint256"
        }
      ],
      "name": "declareResult",
      "outputs": [],
      "stateMutability": "nonpayable",
      "type": "function"
    },
    {
      "inputs": [
        {
          "internalType": "uint256",
          "name": "proposalId",
          "type": "uint256"
        }
      ],
      "name": "cancelProposal",
      "outputs": [],
      "stateMutability": "nonpayable",
      "type": "function"
    },
    {
      "inputs": [
        {
          "internalType": "uint256",
          "name": "proposalId",
          "type": "uint256"
        }
      ],
      "name": "getVotes",
      "outputs": [
        {
          "components": [
            {
              "internalType": "address",
              "name": "voterAddress",
              "type": "address"
            },
            {
              "internalType": "bool",
              "name": "support",
              "type": "bool"
            },
            {
              "internalType": "uint256",
              "name": "votes",
              "type": "uint256"
            }
          ],
          "internalType": "struct GovToken.Vote[]",
          "name": "",
          "type": "tuple[]"
        }
      ],
      "stateMutability": "view",
      "type": "function",
      "constant": true
    }
  ],
  "bytecode": "0x6080604052620186a06003556103e86007556101f46008553480156200002457600080fd5b506064600354601462000038919062000150565b6200004491906200017e565b336000908152602081905260409020556003546064906200006790602862000150565b6200007391906200017e565b3060008181526020819052604090819020929092559051655af3107a4000906200009d9062000142565b6001600160a01b0390921682526020820152604001604051809103906000f080158015620000cf573d6000803e3d6000fd5b50600580546001600160a01b0319166001600160a01b03929092169190911790556003546064906200010390602862000150565b6200010f91906200017e565b6005546001600160a01b0316600090815260208190526040902055600480546001600160a01b03191633179055620001a1565b61076980620023c283390190565b60008160001904831182151516156200017957634e487b7160e01b600052601160045260246000fd5b500290565b6000826200019c57634e487b7160e01b600052601260045260246000fd5b500490565b61221180620001b16000396000f3fe608060405234801561001057600080fd5b50600436106101585760003560e01c806370a08231116100c3578063a9059cbb1161007c578063a9059cbb14610362578063da35c66414610375578063dd62ed3e1461037e578063e0a8f6f5146103b7578063e23a9a52146103ca578063ff9810991461047057600080fd5b806370a08231146102b557806376ea837f146102de57806395d89b41146102f15780639cd0160514610313578063a0712d6814610326578063a5f1e2821461033957600080fd5b806323b872dd1161011557806323b872dd1461023a57806324bc1a641461024d578063313ce567146102555780633e4f49e61461026f57806342966c681461028f5780636036e9e0146102a257600080fd5b8063013cf08b1461015d57806302d05d3f1461019157806306fdde03146101bc578063095ea7b3146101f057806318160ddd146102135780631c4afc5714610225575b600080fd5b61017061016b366004611cd2565b610490565b6040516101889c9b9a99989796959493929190611d38565b60405180910390f35b6004546101a4906001600160a01b031681565b6040516001600160a01b039091168152602001610188565b6101e36040518060400160405280600881526020016723a7ab2a37b5b2b760c11b81525081565b6040516101889190611dbf565b6102036101fe366004611dee565b61060d565b6040519015158152602001610188565b6003545b604051908152602001610188565b610238610233366004611ebb565b610679565b005b610203610248366004611f1f565b610a27565b610bb8610217565b61025d600281565b60405160ff9091168152602001610188565b61028261027d366004611cd2565b610c19565b6040516101889190611f71565b61023861029d366004611cd2565b610d00565b6102386102b0366004611f99565b610e53565b6102176102c3366004611fd6565b6001600160a01b031660009081526020819052604090205490565b6102386102ec366004611cd2565b611205565b6101e36040518060400160405280600381526020016223a7ab60e91b81525081565b6005546101a4906001600160a01b031681565b610238610334366004611cd2565b6114fe565b610217610347366004611fd6565b6001600160a01b031660009081526001602052604090205490565b610203610370366004611dee565b611622565b61021760065481565b61021761038c366004611ff1565b6001600160a01b03918216600090815260026020908152604080832093909416825291909152205490565b6102386103c5366004611cd2565b611728565b61044a6103d8366004612024565b6040805160608101825260008082526020820181905291810191909152506000918252600a602090815260408084206001600160a01b03939093168452918152918190208151606081018352815460ff8082161515835261010090910416151593810193909352600101549082015290565b604080518251151581526020808401511515908201529181015190820152606001610188565b61048361047e366004611cd2565b6119d5565b6040516101889190612047565b600960205260009081526040902080546001820154600283015460038401546004850154600586015460068701805496976001600160a01b03909616969495939460ff80851695610100909504169391906104ea906120ab565b80601f0160208091040260200160405190810160405280929190818152602001828054610516906120ab565b80156105635780601f1061053857610100808354040283529160200191610563565b820191906000526020600020905b81548152906001019060200180831161054657829003601f168201915b505050505090806007018054610578906120ab565b80601f01602080910402602001604051908101604052809291908181526020018280546105a4906120ab565b80156105f15780601f106105c6576101008083540402835291602001916105f1565b820191906000526020600020905b8154815290600101906020018083116105d457829003601f168201915b50505050509080600801549080600901549080600a015490508c565b3360008181526002602090815260408083206001600160a01b038716808552925280832085905551919290917f8c5be1e5ebec7d5bd14f71427d1e84f3dd0314c0f7b2291e5b200ac8c7c3b925906106689086815260200190565b60405180910390a350600192915050565b6007543360009081526001602090815260408083205491839052909120546106a191906120f6565b10156107335760405162461bcd60e51b815260206004820152605060248201527f476f7665726e616e63653a3a70726f706f73653a205573657220646f65736e2760448201527f7420686176652073756666696369656e7420746f6b656e20746f20637265617460648201526f194818481b995dc81c1c9bdc1bdcd85b60821b608482015260a4015b60405180910390fd5b600061074130600754611622565b9050806107ac5760405162461bcd60e51b815260206004820152603360248201527f476f7665726e616e63653a3a70726f706f73653a204661696c75726520696e206044820152727472616e7366657272696e6720746f6b656e7360681b606482015260840161072a565b600654156108685760006107c1600654610c19565b905060008160038111156107d7576107d7611f5b565b14156108665760405162461bcd60e51b815260206004820152605260248201527f476f7665726e616e63653a3a70726f706f73653a206f6e65206c69766520707260448201527f6f706f73616c20617420612074696d652c20666f756e6420616e20616c726561606482015271191e481858dd1a5d99481c1c9bdc1bdcd85b60721b608482015260a40161072a565b505b600680549060006108788361210d565b919050555060006040518061018001604052806006548152602001336001600160a01b031681526020016000815260200160008152602001600015158152602001600015158152602001600081526020018481526020018581526020014281526020014281526020014260786108ee9190612128565b9052805160009081526009602090815260409182902083518155818401516001820180546001600160a01b039092166001600160a01b031990921691909117905591830151600283015560608301516003830155608083015160048301805460a086015115156101000261ff00199315159390931661ffff199091161791909117905560c0830151600583015560e0830151805193945084936109979260068501920190611c39565b5061010082015180516109b4916007840191602090910190611c39565b506101208201518160080155610140820151816009015561016082015181600a01559050507fbd04b5479c6dd97d2cc7727f90a20fe21ccf7121f4f9fdc04a755ee528efeb448160000151338587856101200151604051610a19959493929190612140565b60405180910390a150505050565b6001600160a01b0383166000908152600260209081526040808320338452909152812054821115610aa65760405162461bcd60e51b8152602060048201526024808201527f476f7665726e616e63653a3a7472616e7366657246726f6d3a4e6f7420416c6c6044820152631bddd95960e21b606482015260840161072a565b6001600160a01b0384166000908152600160209081526040808320549183905290912054610ad491906120f6565b821115610b385760405162461bcd60e51b815260206004820152602c60248201527f476f7665726e616e63653a3a7472616e7366657246726f6d3a496e737566666960448201526b6369656e7420746f6b656e7360a01b606482015260840161072a565b6001600160a01b038416600090815260208190526040902054610b5b9083611af9565b6001600160a01b038516600090815260208181526040808320939093556002815282822033835290522054610b909083611af9565b6001600160a01b0380861660009081526002602090815260408083203384528252808320949094559186168152908190522054610bcd9083611b1c565b6001600160a01b038481166000818152602081815260409182902094909455518581529092918716916000805160206121bc833981519152910160405180910390a35060019392505050565b60008160065410158015610c2d5750600082115b610c885760405162461bcd60e51b815260206004820152602660248201527f476f7665726e616e63653a3a73746174653a20696e76616c69642070726f706f6044820152651cd85b081a5960d21b606482015260840161072a565b6000828152600960205260409020600481015460ff1615610cac5750600192915050565b6004810154610100900460ff1615610cf15780600301548160020154118015610cda5750610bb88160020154115b15610ce85750600292915050565b50600392915050565b50600092915050565b50919050565b33610d625760405162461bcd60e51b815260206004820152602c60248201527f476f7665726e616e63653a3a6275726e3a206275726e2066726f6d207468652060448201526b7a65726f206164647265737360a01b606482015260840161072a565b3360009081526001602090815260408083205491839052909120548291610d88916120f6565b1015610dec5760405162461bcd60e51b815260206004820152602d60248201527f476f7665726e616e63653a3a6275726e3a206275726e20616d6f756e7420657860448201526c63656564732062616c616e636560981b606482015260840161072a565b3360009081526020819052604081208054839290610e0b9084906120f6565b925050819055508060036000828254610e2491906120f6565b909155505060405181815260009033906000805160206121bc833981519152906020015b60405180910390a350565b8260065410158015610e655750600083115b610ec35760405162461bcd60e51b815260206004820152602960248201527f476f7665726e616e63653a3a63617374566f74653a20696e76616c69642070726044820152681bdc1bdcd85b081a5960ba1b606482015260840161072a565b6000838152600960205260409020600a810154421115610f3b5760405162461bcd60e51b815260206004820152602d60248201527f476f7665726e616e63653a3a63617374566f74653a20566f74696e672070657260448201526c1a5bd9081a185cc8195b991959609a1b606482015260840161072a565b3360009081526001602090815260408083205491839052909120548391610f61916120f6565b1015610fd7576040805162461bcd60e51b81526020600482015260248101919091527f476f7665726e616e63653a3a63617374566f74653a205573657220646f65736e60448201527f277420686176652073756666696369656e7420746f6b656e20746f20766f7465606482015260840161072a565b6000848152600a602090815260408083203384529091529020805460ff16158061100e5750805460ff610100909104161515841515145b6110805760405162461bcd60e51b815260206004820152603960248201527f476f7665726e616e63653a3a63617374566f74653a20596f752063616e27742060448201527f6361737420766f746520746f20626f7468206f7574636f6d6500000000000000606482015260840161072a565b805460ff161515600114156110a95782816001015461109f9190612128565b6001820155611105565b80548415156101000261ffff19909116176001908117825581018390556000858152600b6020908152604080832060058601805485529252822080546001600160a01b031916331790558054916110ff8361210d565b91905055505b831561112457600282015461111a9084611b1c565b6002830155611139565b60038201546111339084611b1c565b60038301555b3360009081526001602052604081208054859290611158908490612128565b90915550506000858152600a6020908152604080832033808552908352928190208454815460ff19811660ff92831615159081178455875461ffff1990921661ff00199091161761010091829004909216151502178155600180860154910155805192835290820187905285151590820152606081018490527f877856338e13f63d0c36822ff0ef736b80934cd90574a3a5bc9262c39d217c469060800160405180910390a15050505050565b80600654101580156112175750600081115b61127a5760405162461bcd60e51b815260206004820152602e60248201527f476f7665726e616e63653a3a6465636c617265526573756c743a20696e76616c60448201526d1a59081c1c9bdc1bdcd85b081a5960921b606482015260840161072a565b6000818152600960205260409020600a81015442116113015760405162461bcd60e51b815260206004820152603a60248201527f476f7665726e616e63653a3a6465636c617265526573756c743a20566f74696e60448201527f6720706572696f6420686173206e6f742079657420656e646564000000000000606482015260840161072a565b600061130c83610c19565b9050600181600381111561132257611322611f5b565b14156113885760405162461bcd60e51b815260206004820152602f60248201527f476f7665726e616e63653a3a6465636c617265526573756c743a2050726f736f60448201526e1cd85b081a5cc818d85b98d95b1959608a1b606482015260840161072a565b600281600381111561139c5761139c611f5b565b141580156113bc575060038160038111156113b9576113b9611f5b565b14155b6114245760405162461bcd60e51b815260206004820152603360248201527f476f7665726e616e63653a3a6465636c617265526573756c743a20526573756c6044820152721d08185b1c9958591e48185b9b9bdd5b98d959606a1b606482015260840161072a565b60005b826005015481101561149a576000848152600a60209081526040808320600b83528184208585528352818420546001600160a01b03168452825280832060018082015493529083208054919390916114809084906120f6565b9091555082915061149290508161210d565b915050611427565b5060048201805461ff0019166101001790556008546114ba903390611b3b565b50816003015482600201541180156114d75750610bb88260020154115b156114f95760018201546007546114f7916001600160a01b031690611b3b565b505b505050565b6004546001600160a01b031633146115645760405162461bcd60e51b815260206004820152602360248201527f4f6e6c792063726561746f722063616e2063616c6c20746869732066756e637460448201526234b7b760e91b606482015260840161072a565b336115c45760405162461bcd60e51b815260206004820152602a60248201527f476f7665726e616e63653a3a6d696e743a206d696e7420746f20746865207a65604482015269726f206164647265737360b01b606482015260840161072a565b80600360008282546115d69190612128565b909155505033600090815260208190526040812080548392906115fa908490612128565b909155505060405181815233906000906000805160206121bc83398151915290602001610e48565b336000908152600160209081526040808320549183905282205461164691906120f6565b8211156116a65760405162461bcd60e51b815260206004820152602860248201527f476f7665726e616e63653a3a7472616e736665723a496e73756666696369656e6044820152677420746f6b656e7360c01b606482015260840161072a565b336000908152602081905260409020546116c09083611af9565b33600090815260208190526040808220929092556001600160a01b038516815220546116ec9083611b1c565b6001600160a01b038416600081815260208181526040918290209390935551848152909133916000805160206121bc8339815191529101610668565b806006541015801561173a5750600081115b61179e5760405162461bcd60e51b815260206004820152602f60248201527f476f7665726e616e63653a3a63616e63656c50726f706f73616c3a20696e766160448201526e1b1a59081c1c9bdc1bdcd85b081a59608a1b606482015260840161072a565b600081815260096020526040902060018101546001600160a01b03163314611830576040805162461bcd60e51b81526020600482015260248101919091527f476f7665726e616e63653a3a63616e63656c50726f706f73616c3a206f6e6c7960448201527f2063726561746f722063616e2063616e63656c207468652070726f706f73616c606482015260840161072a565b80600a015442106118bb5760405162461bcd60e51b815260206004820152604960248201527f476f7665726e616e63653a3a63616e63656c50726f706f73616c3a2050726f7060448201527f6f73616c2063616e6e6f742062652043616e63656c656420616674657220766f60648201526874696e672074696d6560b81b608482015260a40161072a565b60006118c683610c19565b905060018160038111156118dc576118dc611f5b565b14156119505760405162461bcd60e51b815260206004820152603760248201527f476f7665726e616e63653a3a6465636c617265526573756c743a2050726f736f60448201527f73616c20697320616c72656164792063616e63656c6564000000000000000000606482015260840161072a565b60048201805460ff1916600117905560005b82600501548110156114f7576000848152600a60209081526040808320600b83528184208585528352818420546001600160a01b03168452825280832060018082015493529083208054919390916119bb9084906120f6565b909155508291506119cd90508161210d565b915050611962565b6000818152600960205260408120600501546060918167ffffffffffffffff811115611a0357611a03611e18565b604051908082528060200260200182016040528015611a4e57816020015b6040805160608101825260008082526020808301829052928201528252600019909201910181611a215790505b50905060005b82811015611af157604080516060810182526000878152600b60209081528382208583528152838220546001600160a01b0316808452898352600a82528483208184528083528584208054610100900460ff161515848701529190935291905260010154918101919091528251839083908110611ad357611ad361218f565b60200260200101819052508080611ae99061210d565b915050611a54565b509392505050565b600082821115611b0b57611b0b6121a5565b611b1582846120f6565b9392505050565b600080611b298385612128565b905083811015611b1557611b156121a5565b30600090815260208190526040812054821115611bb75760405162461bcd60e51b815260206004820152603460248201527f476f7665726e616e63653a3a7472616e7366657246726f6d436f6e74726163746044820152733a496e73756666696369656e7420746f6b656e7360601b606482015260840161072a565b30600090815260208190526040902054611bd19083611af9565b30600090815260208190526040808220929092556001600160a01b03851681522054611bfd9083611b1c565b6001600160a01b038416600081815260208181526040918290209390935551848152909130916000805160206121bc8339815191529101610668565b828054611c45906120ab565b90600052602060002090601f016020900481019282611c675760008555611cad565b82601f10611c8057805160ff1916838001178555611cad565b82800160010185558215611cad579182015b82811115611cad578251825591602001919060010190611c92565b50611cb9929150611cbd565b5090565b5b80821115611cb95760008155600101611cbe565b600060208284031215611ce457600080fd5b5035919050565b6000815180845260005b81811015611d1157602081850181015186830182015201611cf5565b81811115611d23576000602083870101525b50601f01601f19169290920160200192915050565b60006101808e835260018060a01b038e1660208401528c60408401528b60608401528a1515608084015289151560a08401528860c08401528060e0840152611d8281840189611ceb565b9050828103610100840152611d978188611ceb565b6101208401969096525050610140810192909252610160909101529998505050505050505050565b602081526000611b156020830184611ceb565b80356001600160a01b0381168114611de957600080fd5b919050565b60008060408385031215611e0157600080fd5b611e0a83611dd2565b946020939093013593505050565b634e487b7160e01b600052604160045260246000fd5b600082601f830112611e3f57600080fd5b813567ffffffffffffffff80821115611e5a57611e5a611e18565b604051601f8301601f19908116603f01168101908282118183101715611e8257611e82611e18565b81604052838152866020858801011115611e9b57600080fd5b836020870160208301376000602085830101528094505050505092915050565b60008060408385031215611ece57600080fd5b823567ffffffffffffffff80821115611ee657600080fd5b611ef286838701611e2e565b93506020850135915080821115611f0857600080fd5b50611f1585828601611e2e565b9150509250929050565b600080600060608486031215611f3457600080fd5b611f3d84611dd2565b9250611f4b60208501611dd2565b9150604084013590509250925092565b634e487b7160e01b600052602160045260246000fd5b6020810160048310611f9357634e487b7160e01b600052602160045260246000fd5b91905290565b600080600060608486031215611fae57600080fd5b8335925060208401358015158114611fc557600080fd5b929592945050506040919091013590565b600060208284031215611fe857600080fd5b611b1582611dd2565b6000806040838503121561200457600080fd5b61200d83611dd2565b915061201b60208401611dd2565b90509250929050565b6000806040838503121561203757600080fd5b8235915061201b60208401611dd2565b602080825282518282018190526000919060409081850190868401855b8281101561209e57815180516001600160a01b03168552868101511515878601528501518585015260609093019290850190600101612064565b5091979650505050505050565b600181811c908216806120bf57607f821691505b60208210811415610cfa57634e487b7160e01b600052602260045260246000fd5b634e487b7160e01b600052601160045260246000fd5b600082821015612108576121086120e0565b500390565b6000600019821415612121576121216120e0565b5060010190565b6000821982111561213b5761213b6120e0565b500190565b8581526001600160a01b038516602082015260a06040820181905260009061216a90830186611ceb565b828103606084015261217c8186611ceb565b9150508260808301529695505050505050565b634e487b7160e01b600052603260045260246000fd5b634e487b7160e01b600052600160045260246000fdfeddf252ad1be2c89b69c2b068fc378daa952ba7f163c4a11628f55a4df523b3efa2646970667358221220d86fe88a636799cd0b91b92d5f724439b4c26e38e5b7f47671662278e843dbc764736f6c634300080b0033608060405234801561001057600080fd5b5060405161076938038061076983398101604081905261002f91610066565b60028054336001600160a01b031991821617909155600080549091166001600160a01b0393909316929092179091556001556100a0565b6000806040838503121561007957600080fd5b82516001600160a01b038116811461009057600080fd5b6020939093015192949293505050565b6106ba806100af6000396000f3fe60806040526004361061003f5760003560e01c8063a035b1fe14610044578063d96a094a1461006d578063e4849b3214610082578063fc0c546a146100a2575b600080fd5b34801561005057600080fd5b5061005a60015481565b6040519081526020015b60405180910390f35b61008061007b3660046105c4565b6100da565b005b34801561008e57600080fd5b5061008061009d3660046105c4565b610314565b3480156100ae57600080fd5b506000546100c2906001600160a01b031681565b6040516001600160a01b039091168152602001610064565b6100e681600154610586565b34146101505760405162461bcd60e51b815260206004820152602e60248201527f436865636b2070726963652070657220746f6b656e20616e642073656e64206160448201526d70706f727072696174652077656960901b60648201526084015b60405180910390fd5b600080546040516370a0823160e01b81523060048201526001600160a01b03909116906370a0823190602401602060405180830381865afa158015610199573d6000803e3d6000fd5b505050506040513d601f19601f820116820180604052508101906101bd91906105dd565b90506000821161020f5760405162461bcd60e51b815260206004820152601b60248201527f596f75206e65656420746f2073656e6420736f6d6520657468657200000000006044820152606401610147565b8082111561025f5760405162461bcd60e51b815260206004820181905260248201527f4e6f7420656e6f75676820746f6b656e7320696e2074686520726573657276656044820152606401610147565b60005460405163a9059cbb60e01b8152336004820152602481018490526001600160a01b039091169063a9059cbb906044016020604051808303816000875af11580156102b0573d6000803e3d6000fd5b505050506040513d601f19601f820116820180604052508101906102d491906105f6565b6102dd57600080fd5b6040518281527f4e08ba899977cf7d4c2964bce71c6b9a7ef76ee5166a4c1249a1e08016e33ef19060200160405180910390a15050565b600081116103725760405162461bcd60e51b815260206004820152602560248201527f596f75206e65656420746f2073656c6c206174206c6561737420736f6d6520746044820152646f6b656e7360d81b6064820152608401610147565b60008054604051636eb1769f60e11b81523360048201523060248201526001600160a01b039091169063dd62ed3e90604401602060405180830381865afa1580156103c1573d6000803e3d6000fd5b505050506040513d601f19601f820116820180604052508101906103e591906105dd565b9050818110156104375760405162461bcd60e51b815260206004820152601960248201527f436865636b2074686520746f6b656e20616c6c6f77616e6365000000000000006044820152606401610147565b6000479050600061044a84600154610586565b905081811061049b5760405162461bcd60e51b815260206004820152601b60248201527f4e6f7420656e6f7567682062616c616e636520776974682044455800000000006044820152606401610147565b6000546040516323b872dd60e01b8152336004820152306024820152604481018690526001600160a01b03909116906323b872dd906064016020604051808303816000875af11580156104f2573d6000803e3d6000fd5b505050506040513d601f19601f8201168201806040525081019061051691906105f6565b61051f57600080fd5b604051339082156108fc029083906000818181858888f1935050505015801561054c573d6000803e3d6000fd5b506040518481527f92f64ca637d023f354075a4be751b169c1a8a9ccb6d33cdd0cb35205439957279060200160405180910390a150505050565b600082610595575060006105be565b60006105a1838561061f565b9050826105ae858361064c565b146105bb576105bb61066e565b90505b92915050565b6000602082840312156105d657600080fd5b5035919050565b6000602082840312156105ef57600080fd5b5051919050565b60006020828403121561060857600080fd5b8151801515811461061857600080fd5b9392505050565b600081600019048311821515161561064757634e487b7160e01b600052601160045260246000fd5b500290565b60008261066957634e487b7160e01b600052601260045260246000fd5b500490565b634e487b7160e01b600052600160045260246000fdfea2646970667358221220a159ded24552b60d2ff518414a45a917bed7ff4818d588bf87d69623ba3e1d9764736f6c634300080b0033",
  "immutableReferences": {},
  "source": "// SPDX-License-Identifier: MIT\r\npragma solidity ^0.8.6;\r\n\r\nimport \"./Exchange.sol\";\r\n\r\ninterface IERC20 {\r\n    function totalSupply() external view returns (uint256);\r\n\r\n    function balanceOf(address account) external view returns (uint256);\r\n\r\n    function allowance(address owner, address spender)\r\n        external\r\n        view\r\n        returns (uint256);\r\n\r\n    function transfer(address recipient, uint256 amount)\r\n        external\r\n        returns (bool);\r\n\r\n    function approve(address spender, uint256 amount) external returns (bool);\r\n\r\n    function transferFrom(\r\n        address sender,\r\n        address recipient,\r\n        uint256 amount\r\n    ) external returns (bool);\r\n\r\n    //     event Transfer(address indexed from, address indexed to, uint256 value);\r\n    //     event Approval(address indexed owner, address indexed spender, uint256 value);\r\n    //\r\n}\r\n\r\ncontract GovToken is IERC20 {\r\n    string public constant name = \"GOVToken\";\r\n    string public constant symbol = \"GOV\";\r\n    uint8 public constant decimals = 2;\r\n\r\n    event Approval(\r\n        address indexed tokenOwner,\r\n        address indexed spender,\r\n        uint256 tokens\r\n    );\r\n    event Transfer(address indexed from, address indexed to, uint256 tokens);\r\n\r\n    mapping(address => uint256) balances;\r\n    mapping(address => uint256) locked;\r\n\r\n    mapping(address => mapping(address => uint256)) allowed;\r\n\r\n    uint256 _totalSupply = 100000;\r\n    address public creator;\r\n    address public exchangeAddress;\r\n\r\n    using SafeMath for uint256;\r\n\r\n    constructor() {\r\n        balances[msg.sender] = (_totalSupply * 20) / 100;\r\n        balances[address(this)] = (_totalSupply * 40) / 100;\r\n        exchangeAddress = address(new Exchange(address(this), 100000000000000)); // price is 0.0001 eth i.e. 1eth = 10000 tokens\r\n        balances[exchangeAddress] = (_totalSupply * 40) / 100;\r\n        creator = msg.sender;\r\n    }\r\n\r\n    modifier onlyCreator() {\r\n        require(msg.sender == creator, \"Only creator can call this function\");\r\n        _;\r\n    }\r\n\r\n    function totalSupply() public view override returns (uint256) {\r\n        return _totalSupply;\r\n    }\r\n\r\n    function balanceOf(address tokenOwner)\r\n        public\r\n        view\r\n        override\r\n        returns (uint256)\r\n    {\r\n        return balances[tokenOwner];\r\n    }\r\n\r\n    function lockedOf(address tokenOwner) public view returns (uint256) {\r\n        return locked[tokenOwner];\r\n    }\r\n\r\n    function transfer(address receiver, uint256 numTokens)\r\n        public\r\n        override\r\n        returns (bool)\r\n    {\r\n        require(\r\n            numTokens <= balances[msg.sender] - locked[msg.sender],\r\n            \"Governance::transfer:Insufficient tokens\"\r\n        );\r\n        balances[msg.sender] = balances[msg.sender].sub(numTokens);\r\n        balances[receiver] = balances[receiver].add(numTokens);\r\n        emit Transfer(msg.sender, receiver, numTokens);\r\n        return true;\r\n    }\r\n\r\n    function transferFromContract(address receiver, uint256 numTokens)\r\n        internal\r\n        returns (bool)\r\n    {\r\n        require(\r\n            numTokens <= balances[address(this)],\r\n            \"Governance::transferFromContract:Insufficient tokens\"\r\n        );\r\n        balances[address(this)] = balances[address(this)].sub(numTokens);\r\n        balances[receiver] = balances[receiver].add(numTokens);\r\n        emit Transfer(address(this), receiver, numTokens);\r\n        return true;\r\n    }\r\n\r\n    function approve(address delegate, uint256 numTokens)\r\n        public\r\n        override\r\n        returns (bool)\r\n    {\r\n        allowed[msg.sender][delegate] = numTokens;\r\n        emit Approval(msg.sender, delegate, numTokens);\r\n        return true;\r\n    }\r\n\r\n    function allowance(address owner, address delegate)\r\n        public\r\n        view\r\n        override\r\n        returns (uint256)\r\n    {\r\n        return allowed[owner][delegate];\r\n    }\r\n\r\n    function transferFrom(\r\n        address owner,\r\n        address receiver,\r\n        uint256 numTokens\r\n    ) public override returns (bool) {\r\n        require(\r\n            numTokens <= allowed[owner][msg.sender],\r\n            \"Governance::transferFrom:Not Allowed\"\r\n        );\r\n        require(\r\n            numTokens <= balances[owner] - locked[owner],\r\n            \"Governance::transferFrom:Insufficient tokens\"\r\n        );\r\n\r\n        balances[owner] = balances[owner].sub(numTokens);\r\n        allowed[owner][msg.sender] = allowed[owner][msg.sender].sub(numTokens);\r\n        balances[receiver] = balances[receiver].add(numTokens);\r\n        emit Transfer(owner, receiver, numTokens);\r\n        return true;\r\n    }\r\n\r\n    function mint(uint256 numTokens) public onlyCreator {\r\n        require(\r\n            msg.sender != address(0),\r\n            \"Governance::mint: mint to the zero address\"\r\n        );\r\n        _totalSupply += numTokens;\r\n        balances[msg.sender] += numTokens;\r\n        emit Transfer(address(0), msg.sender, numTokens);\r\n    }\r\n\r\n    function burn(uint256 numTokens) public {\r\n        require(\r\n            msg.sender != address(0),\r\n            \"Governance::burn: burn from the zero address\"\r\n        );\r\n        require(\r\n            balances[msg.sender] - locked[msg.sender] >= numTokens,\r\n            \"Governance::burn: burn amount exceeds balance\"\r\n        );\r\n        balances[msg.sender] -= numTokens;\r\n        _totalSupply -= numTokens;\r\n\r\n        emit Transfer(msg.sender, address(0), numTokens);\r\n    }\r\n\r\n    uint256 public proposalCount;\r\n    uint256 tokensReqdForProposal = 1000;\r\n    uint256 declaringResultReward = 500;\r\n\r\n    function quorumVotes() public pure returns (uint256) {\r\n        return 3000;\r\n    }\r\n\r\n    /// @notice The total number of proposals\r\n    struct Proposal {\r\n        //  Unique id for looking up a proposal\r\n        uint256 id;\r\n        //  Creator of the proposal\r\n        address proposer;\r\n        //  Current number of votes in favor of this proposal\r\n        uint256 forVotes;\r\n        //  Current number of votes in opposition to this proposal\r\n        uint256 againstVotes;\r\n        //  Flag marking whether the proposal has been canceled\r\n        bool canceled;\r\n        //  Flag marking whether the proposal has been announced\r\n        bool announced;\r\n        uint256 voterCount;\r\n        // description  of the proposal\r\n        string description;\r\n        //title  of the proposal\r\n        string title;\r\n        //creation date\r\n        uint256 dateOfCreation;\r\n        //cancellation date or announcement date\r\n        uint256 date;\r\n        // Deadln=ine for voting\r\n        uint256 deadlineForVoting;\r\n    }\r\n    /// @notice Ballot receipt record for a voter\r\n    struct Receipt {\r\n        //  Hether or not a vote has been cast\r\n        bool hasVoted;\r\n        //  Whether or not the voter supports the proposal\r\n        bool support;\r\n        //  The number of votes the voter had, which were cast\r\n        uint256 votes;\r\n    }\r\n\r\n    // The official record of all proposals ever proposed\r\n    mapping(uint256 => Proposal) public proposals;\r\n\r\n    // To store receipts of all voters on all proposals\r\n    // proposalId => (voterAddress => Receipt)\r\n    mapping(uint256 => mapping(address => Receipt)) receipts;\r\n\r\n    // To store all voters on all proposals\r\n    // proposalId => (voterIndex => voterAddress)\r\n    mapping(uint256 => mapping(uint256 => address)) voters;\r\n\r\n    /// @notice Possible states that a proposal may be in\r\n    enum ProposalState {\r\n        Active,\r\n        Canceled,\r\n        Accepted,\r\n        Rejected\r\n    }\r\n\r\n    /// @notice An event emitted when a new proposal is created\r\n    event ProposalCreated(\r\n        uint256 id,\r\n        address proposer,\r\n        string description,\r\n        string title,\r\n        uint256 dateOfCreation\r\n    );\r\n\r\n    /// @notice An event emitted when a vote has been cast on a proposal\r\n    event VoteCast(\r\n        address voter,\r\n        uint256 proposalId,\r\n        bool support,\r\n        uint256 votes\r\n    );\r\n\r\n    function propose(string memory title, string memory description) external {\r\n        require(\r\n            balances[msg.sender] - locked[msg.sender] >= tokensReqdForProposal,\r\n            \"Governance::propose: User doesn't have sufficient token to create a new proposal\"\r\n        );\r\n        bool sent = transfer(address(this), tokensReqdForProposal);\r\n        require(sent, \"Governance::propose: Failure in transferring tokens\");\r\n\r\n        if (proposalCount != 0) {\r\n            ProposalState latestProposalState = state(proposalCount);\r\n            require(\r\n                latestProposalState != ProposalState.Active,\r\n                \"Governance::propose: one live proposal at a time, found an already active proposal\"\r\n            );\r\n        }\r\n\r\n        proposalCount++;\r\n        Proposal memory newProposal = Proposal({\r\n            id: proposalCount,\r\n            proposer: msg.sender,\r\n            description: description,\r\n            forVotes: 0,\r\n            againstVotes: 0,\r\n            canceled: false,\r\n            announced: false,\r\n            deadlineForVoting: block.timestamp + 2 minutes,\r\n            voterCount: 0,\r\n            title: title,\r\n            dateOfCreation: block.timestamp,\r\n            date: block.timestamp\r\n        });\r\n\r\n        proposals[newProposal.id] = newProposal;\r\n        emit ProposalCreated(\r\n            newProposal.id,\r\n            msg.sender,\r\n            description,\r\n            title,\r\n            newProposal.dateOfCreation\r\n        );\r\n    }\r\n\r\n    function getReceipt(uint256 proposalId, address voter)\r\n        external\r\n        view\r\n        returns (Receipt memory)\r\n    {\r\n        return receipts[proposalId][voter];\r\n    }\r\n\r\n    function state(uint256 proposalId) public view returns (ProposalState) {\r\n        require(\r\n            proposalCount >= proposalId && proposalId > 0,\r\n            \"Governance::state: invalid proposal id\"\r\n        );\r\n        Proposal storage proposal = proposals[proposalId];\r\n        if (proposal.canceled) {\r\n            return ProposalState.Canceled;\r\n        } else if (proposal.announced) {\r\n            if (\r\n                proposal.forVotes > proposal.againstVotes &&\r\n                proposal.forVotes > quorumVotes()\r\n            ) {\r\n                return ProposalState.Accepted;\r\n            } else {\r\n                return ProposalState.Rejected;\r\n            }\r\n        } else {\r\n            return ProposalState.Active;\r\n        }\r\n    }\r\n\r\n    function castVote(\r\n        uint256 proposalId,\r\n        bool support,\r\n        uint256 votes\r\n    ) external {\r\n        require(\r\n            proposalCount >= proposalId && proposalId > 0,\r\n            \"Governance::castVote: invalid proposal id\"\r\n        );\r\n        Proposal storage proposal = proposals[proposalId];\r\n        require(\r\n            block.timestamp <= proposal.deadlineForVoting,\r\n            \"Governance::castVote: Voting period has ended\"\r\n        );\r\n        require(\r\n            balances[msg.sender] - locked[msg.sender] >= votes,\r\n            \"Governance::castVote: User doesn't have sufficient token to vote\"\r\n        );\r\n        Receipt storage receipt = receipts[proposalId][msg.sender];\r\n        require(\r\n            (receipt.hasVoted == false || receipt.support == support),\r\n            \"Governance::castVote: You can't cast vote to both outcome\"\r\n        );\r\n\r\n        if (receipt.hasVoted == true) {\r\n            receipt.votes = receipt.votes + votes;\r\n        } else {\r\n            receipt.hasVoted = true;\r\n            receipt.support = support;\r\n            receipt.votes = votes;\r\n            voters[proposalId][proposal.voterCount] = msg.sender;\r\n            proposal.voterCount++;\r\n        }\r\n        if (support) {\r\n            proposal.forVotes = proposal.forVotes.add(votes);\r\n        } else {\r\n            proposal.againstVotes = proposal.againstVotes.add(votes);\r\n        }\r\n\r\n        locked[msg.sender] += votes;\r\n        receipts[proposalId][msg.sender] = receipt;\r\n        emit VoteCast(msg.sender, proposalId, support, votes);\r\n    }\r\n\r\n    function declareResult(uint256 proposalId) external {\r\n        require(\r\n            proposalCount >= proposalId && proposalId > 0,\r\n            \"Governance::declareResult: invalid proposal id\"\r\n        );\r\n        Proposal storage proposal = proposals[proposalId];\r\n        require(\r\n            block.timestamp > proposal.deadlineForVoting,\r\n            \"Governance::declareResult: Voting period has not yet ended\"\r\n        );\r\n        ProposalState _ProposalState = state(proposalId);\r\n        require(\r\n            _ProposalState != ProposalState.Canceled,\r\n            \"Governance::declareResult: Prososal is canceled\"\r\n        );\r\n        require(\r\n            _ProposalState != ProposalState.Accepted &&\r\n                _ProposalState != ProposalState.Rejected,\r\n            \"Governance::declareResult: Result already announced\"\r\n        );\r\n\r\n        for (uint256 i = 0; i < proposal.voterCount; i++) {\r\n            Receipt storage receipt = receipts[proposalId][\r\n                voters[proposalId][i]\r\n            ];\r\n            locked[voters[proposalId][i]] -= receipt.votes;\r\n        }\r\n        proposal.announced = true;\r\n        transferFromContract(msg.sender, declaringResultReward);\r\n        if (\r\n            proposal.forVotes > proposal.againstVotes &&\r\n            proposal.forVotes > quorumVotes()\r\n        ) {\r\n            //winning\r\n            transferFromContract(proposal.proposer, tokensReqdForProposal);\r\n        }\r\n    }\r\n\r\n    function cancelProposal(uint256 proposalId) external {\r\n        require(\r\n            proposalCount >= proposalId && proposalId > 0,\r\n            \"Governance::cancelProposal: invalid proposal id\"\r\n        );\r\n        Proposal storage proposal = proposals[proposalId];\r\n        require(\r\n            msg.sender == proposal.proposer,\r\n            \"Governance::cancelProposal: only creator can cancel the proposal\"\r\n        );\r\n        require(\r\n            block.timestamp < proposal.deadlineForVoting,\r\n            \"Governance::cancelProposal: Proposal cannot be Canceled after voting time\"\r\n        );\r\n        ProposalState _ProposalState = state(proposalId);\r\n        require(\r\n            _ProposalState != ProposalState.Canceled,\r\n            \"Governance::declareResult: Prososal is already canceled\"\r\n        );\r\n        proposal.canceled = true;\r\n        for (uint256 i = 0; i < proposal.voterCount; i++) {\r\n            Receipt storage receipt = receipts[proposalId][\r\n                voters[proposalId][i]\r\n            ];\r\n            locked[voters[proposalId][i]] -= receipt.votes;\r\n        }\r\n    }\r\n\r\n    struct Vote {\r\n        address voterAddress;\r\n        bool support;\r\n        uint256 votes;\r\n    }\r\n\r\n    function getVotes(uint256 proposalId) public view returns (Vote[] memory) {\r\n        uint256 voterCount = proposals[proposalId].voterCount;\r\n        Vote[] memory votes = new Vote[](voterCount);\r\n        for (uint256 i = 0; i < voterCount; i++) {\r\n            votes[i] = Vote(\r\n                voters[proposalId][i],\r\n                receipts[proposalId][voters[proposalId][i]].support,\r\n                receipts[proposalId][voters[proposalId][i]].votes\r\n            );\r\n        }\r\n        return votes;\r\n    }\r\n}\r\n\r\nlibrary SafeMath {\r\n    function sub(uint256 a, uint256 b) internal pure returns (uint256) {\r\n        assert(b <= a);\r\n        return a - b;\r\n    }\r\n\r\n    function add(uint256 a, uint256 b) internal pure returns (uint256) {\r\n        uint256 c = a + b;\r\n        assert(c >= a);\r\n        return c;\r\n    }\r\n}\r\n",
  "sourcePath": "C:\\Users\\AKASH\\Desktop\\AK\\Academics\\SEMVII\\BTC\\Project\\gov-dapp2\\governance-dapp\\contracts\\GovToken.sol",
  "compiler": {
    "name": "solc",
    "version": "0.8.11+commit.d7f03943.Emscripten.clang"
  },
  "schemaVersion": "3.4.3",
  "updatedAt": "2022-01-02T06:54:24.900Z",
  "networkType": "ethereum",
  "devdoc": {
    "kind": "dev",
    "methods": {},
    "version": 1
  },
  "userdoc": {
    "events": {
      "ProposalCreated(uint256,address,string,string,uint256)": {
        "notice": "An event emitted when a new proposal is created"
      },
      "VoteCast(address,uint256,bool,uint256)": {
        "notice": "An event emitted when a vote has been cast on a proposal"
      }
    },
    "kind": "user",
    "methods": {},
    "version": 1
  }
}