{
  "contractName": "GovToken",
  "abi": [
    {
      "inputs": [],
      "stateMutability": "nonpayable",
      "type": "constructor"
    },
    {
      "anonymous": false,
      "inputs": [
        {
          "indexed": true,
          "internalType": "address",
          "name": "tokenOwner",
          "type": "address"
        },
        {
          "indexed": true,
          "internalType": "address",
          "name": "spender",
          "type": "address"
        },
        {
          "indexed": false,
          "internalType": "uint256",
          "name": "tokens",
          "type": "uint256"
        }
      ],
      "name": "Approval",
      "type": "event"
    },
    {
      "anonymous": false,
      "inputs": [
        {
          "indexed": false,
          "internalType": "uint256",
          "name": "id",
          "type": "uint256"
        },
        {
          "indexed": false,
          "internalType": "address",
          "name": "proposer",
          "type": "address"
        },
        {
          "indexed": false,
          "internalType": "string",
          "name": "description",
          "type": "string"
        },
        {
          "indexed": false,
          "internalType": "string",
          "name": "title",
          "type": "string"
        },
        {
          "indexed": false,
          "internalType": "uint256",
          "name": "dateOfCreation",
          "type": "uint256"
        }
      ],
      "name": "ProposalCreated",
      "type": "event"
    },
    {
      "anonymous": false,
      "inputs": [
        {
          "indexed": true,
          "internalType": "address",
          "name": "from",
          "type": "address"
        },
        {
          "indexed": true,
          "internalType": "address",
          "name": "to",
          "type": "address"
        },
        {
          "indexed": false,
          "internalType": "uint256",
          "name": "tokens",
          "type": "uint256"
        }
      ],
      "name": "Transfer",
      "type": "event"
    },
    {
      "anonymous": false,
      "inputs": [
        {
          "indexed": false,
          "internalType": "address",
          "name": "voter",
          "type": "address"
        },
        {
          "indexed": false,
          "internalType": "uint256",
          "name": "proposalId",
          "type": "uint256"
        },
        {
          "indexed": false,
          "internalType": "bool",
          "name": "support",
          "type": "bool"
        },
        {
          "indexed": false,
          "internalType": "uint256",
          "name": "votes",
          "type": "uint256"
        }
      ],
      "name": "VoteCast",
      "type": "event"
    },
    {
      "inputs": [],
      "name": "creator",
      "outputs": [
        {
          "internalType": "address",
          "name": "",
          "type": "address"
        }
      ],
      "stateMutability": "view",
      "type": "function",
      "constant": true
    },
    {
      "inputs": [],
      "name": "decimals",
      "outputs": [
        {
          "internalType": "uint8",
          "name": "",
          "type": "uint8"
        }
      ],
      "stateMutability": "view",
      "type": "function",
      "constant": true
    },
    {
      "inputs": [],
      "name": "name",
      "outputs": [
        {
          "internalType": "string",
          "name": "",
          "type": "string"
        }
      ],
      "stateMutability": "view",
      "type": "function",
      "constant": true
    },
    {
      "inputs": [],
      "name": "proposalCount",
      "outputs": [
        {
          "internalType": "uint256",
          "name": "",
          "type": "uint256"
        }
      ],
      "stateMutability": "view",
      "type": "function",
      "constant": true
    },
    {
      "inputs": [
        {
          "internalType": "uint256",
          "name": "",
          "type": "uint256"
        }
      ],
      "name": "proposals",
      "outputs": [
        {
          "internalType": "uint256",
          "name": "id",
          "type": "uint256"
        },
        {
          "internalType": "address",
          "name": "proposer",
          "type": "address"
        },
        {
          "internalType": "uint256",
          "name": "forVotes",
          "type": "uint256"
        },
        {
          "internalType": "uint256",
          "name": "againstVotes",
          "type": "uint256"
        },
        {
          "internalType": "bool",
          "name": "canceled",
          "type": "bool"
        },
        {
          "internalType": "bool",
          "name": "announced",
          "type": "bool"
        },
        {
          "internalType": "uint256",
          "name": "voterCount",
          "type": "uint256"
        },
        {
          "internalType": "string",
          "name": "description",
          "type": "string"
        },
        {
          "internalType": "string",
          "name": "title",
          "type": "string"
        },
        {
          "internalType": "uint256",
          "name": "dateOfCreation",
          "type": "uint256"
        },
        {
          "internalType": "uint256",
          "name": "date",
          "type": "uint256"
        },
        {
          "internalType": "uint256",
          "name": "deadlineForVoting",
          "type": "uint256"
        }
      ],
      "stateMutability": "view",
      "type": "function",
      "constant": true
    },
    {
      "inputs": [],
      "name": "symbol",
      "outputs": [
        {
          "internalType": "string",
          "name": "",
          "type": "string"
        }
      ],
      "stateMutability": "view",
      "type": "function",
      "constant": true
    },
    {
      "inputs": [],
      "name": "totalSupply",
      "outputs": [
        {
          "internalType": "uint256",
          "name": "",
          "type": "uint256"
        }
      ],
      "stateMutability": "view",
      "type": "function",
      "constant": true
    },
    {
      "inputs": [
        {
          "internalType": "address",
          "name": "tokenOwner",
          "type": "address"
        }
      ],
      "name": "balanceOf",
      "outputs": [
        {
          "internalType": "uint256",
          "name": "",
          "type": "uint256"
        }
      ],
      "stateMutability": "view",
      "type": "function",
      "constant": true
    },
    {
      "inputs": [
        {
          "internalType": "address",
          "name": "tokenOwner",
          "type": "address"
        }
      ],
      "name": "lockedOf",
      "outputs": [
        {
          "internalType": "uint256",
          "name": "",
          "type": "uint256"
        }
      ],
      "stateMutability": "view",
      "type": "function",
      "constant": true
    },
    {
      "inputs": [
        {
          "internalType": "address",
          "name": "receiver",
          "type": "address"
        },
        {
          "internalType": "uint256",
          "name": "numTokens",
          "type": "uint256"
        }
      ],
      "name": "transfer",
      "outputs": [
        {
          "internalType": "bool",
          "name": "",
          "type": "bool"
        }
      ],
      "stateMutability": "nonpayable",
      "type": "function"
    },
    {
      "inputs": [
        {
          "internalType": "address",
          "name": "delegate",
          "type": "address"
        },
        {
          "internalType": "uint256",
          "name": "numTokens",
          "type": "uint256"
        }
      ],
      "name": "approve",
      "outputs": [
        {
          "internalType": "bool",
          "name": "",
          "type": "bool"
        }
      ],
      "stateMutability": "nonpayable",
      "type": "function"
    },
    {
      "inputs": [
        {
          "internalType": "address",
          "name": "owner",
          "type": "address"
        },
        {
          "internalType": "address",
          "name": "delegate",
          "type": "address"
        }
      ],
      "name": "allowance",
      "outputs": [
        {
          "internalType": "uint256",
          "name": "",
          "type": "uint256"
        }
      ],
      "stateMutability": "view",
      "type": "function",
      "constant": true
    },
    {
      "inputs": [
        {
          "internalType": "address",
          "name": "owner",
          "type": "address"
        },
        {
          "internalType": "address",
          "name": "receiver",
          "type": "address"
        },
        {
          "internalType": "uint256",
          "name": "numTokens",
          "type": "uint256"
        }
      ],
      "name": "transferFrom",
      "outputs": [
        {
          "internalType": "bool",
          "name": "",
          "type": "bool"
        }
      ],
      "stateMutability": "nonpayable",
      "type": "function"
    },
    {
      "inputs": [
        {
          "internalType": "uint256",
          "name": "numTokens",
          "type": "uint256"
        }
      ],
      "name": "mint",
      "outputs": [],
      "stateMutability": "nonpayable",
      "type": "function"
    },
    {
      "inputs": [
        {
          "internalType": "uint256",
          "name": "numTokens",
          "type": "uint256"
        }
      ],
      "name": "burn",
      "outputs": [],
      "stateMutability": "nonpayable",
      "type": "function"
    },
    {
      "inputs": [],
      "name": "quorumVotes",
      "outputs": [
        {
          "internalType": "uint256",
          "name": "",
          "type": "uint256"
        }
      ],
      "stateMutability": "pure",
      "type": "function",
      "constant": true
    },
    {
      "inputs": [
        {
          "internalType": "string",
          "name": "title",
          "type": "string"
        },
        {
          "internalType": "string",
          "name": "description",
          "type": "string"
        }
      ],
      "name": "propose",
      "outputs": [],
      "stateMutability": "nonpayable",
      "type": "function"
    },
    {
      "inputs": [
        {
          "internalType": "uint256",
          "name": "proposalId",
          "type": "uint256"
        },
        {
          "internalType": "address",
          "name": "voter",
          "type": "address"
        }
      ],
      "name": "getReceipt",
      "outputs": [
        {
          "components": [
            {
              "internalType": "bool",
              "name": "hasVoted",
              "type": "bool"
            },
            {
              "internalType": "bool",
              "name": "support",
              "type": "bool"
            },
            {
              "internalType": "uint256",
              "name": "votes",
              "type": "uint256"
            }
          ],
          "internalType": "struct GovToken.Receipt",
          "name": "",
          "type": "tuple"
        }
      ],
      "stateMutability": "view",
      "type": "function",
      "constant": true
    },
    {
      "inputs": [
        {
          "internalType": "uint256",
          "name": "proposalId",
          "type": "uint256"
        }
      ],
      "name": "state",
      "outputs": [
        {
          "internalType": "enum GovToken.ProposalState",
          "name": "",
          "type": "uint8"
        }
      ],
      "stateMutability": "view",
      "type": "function",
      "constant": true
    },
    {
      "inputs": [
        {
          "internalType": "uint256",
          "name": "proposalId",
          "type": "uint256"
        },
        {
          "internalType": "bool",
          "name": "support",
          "type": "bool"
        },
        {
          "internalType": "uint256",
          "name": "votes",
          "type": "uint256"
        }
      ],
      "name": "castVote",
      "outputs": [],
      "stateMutability": "nonpayable",
      "type": "function"
    },
    {
      "inputs": [
        {
          "internalType": "uint256",
          "name": "proposalId",
          "type": "uint256"
        }
      ],
      "name": "declareResult",
      "outputs": [],
      "stateMutability": "nonpayable",
      "type": "function"
    },
    {
      "inputs": [
        {
          "internalType": "uint256",
          "name": "proposalId",
          "type": "uint256"
        }
      ],
      "name": "cancelProposal",
      "outputs": [],
      "stateMutability": "nonpayable",
      "type": "function"
    },
    {
      "inputs": [
        {
          "internalType": "uint256",
          "name": "proposalId",
          "type": "uint256"
        }
      ],
      "name": "getVotes",
      "outputs": [
        {
          "components": [
            {
              "internalType": "address",
              "name": "voterAddress",
              "type": "address"
            },
            {
              "internalType": "bool",
              "name": "support",
              "type": "bool"
            },
            {
              "internalType": "uint256",
              "name": "votes",
              "type": "uint256"
            }
          ],
          "internalType": "struct GovToken.Vote[]",
          "name": "",
          "type": "tuple[]"
        }
      ],
      "stateMutability": "view",
      "type": "function",
      "constant": true
    }
  ],
  "bytecode": "0x6080604052612710600355606460065560326007553480156200002157600080fd5b506064600354601462000035919062000098565b620000419190620000c6565b336000908152602081905260409020556003546064906200006490602862000098565b620000709190620000c6565b30600090815260208190526040902055600480546001600160a01b03191633179055620000e9565b6000816000190483118215151615620000c157634e487b7160e01b600052601160045260246000fd5b500290565b600082620000e457634e487b7160e01b600052601260045260246000fd5b500490565b6121f380620000f96000396000f3fe608060405234801561001057600080fd5b506004361061014d5760003560e01c80636036e9e0116100c3578063a9059cbb1161007c578063a9059cbb14610344578063da35c66414610357578063dd62ed3e14610360578063e0a8f6f514610399578063e23a9a52146103ac578063ff9810991461045257600080fd5b80636036e9e01461029757806370a08231146102aa57806376ea837f146102d357806395d89b41146102e6578063a0712d6814610308578063a5f1e2821461031b57600080fd5b80631c4afc57116101155780631c4afc571461021a57806323b872dd1461022f57806324bc1a6414610242578063313ce5671461024a5780633e4f49e61461026457806342966c681461028457600080fd5b8063013cf08b1461015257806302d05d3f1461018657806306fdde03146101b1578063095ea7b3146101e557806318160ddd14610208575b600080fd5b610165610160366004611cb4565b610472565b60405161017d9c9b9a99989796959493929190611d1a565b60405180910390f35b600454610199906001600160a01b031681565b6040516001600160a01b03909116815260200161017d565b6101d86040518060400160405280600881526020016723a7ab2a37b5b2b760c11b81525081565b60405161017d9190611da1565b6101f86101f3366004611dd0565b6105ef565b604051901515815260200161017d565b6003545b60405190815260200161017d565b61022d610228366004611e9d565b61065b565b005b6101f861023d366004611f01565b610a09565b61012c61020c565b610252600281565b60405160ff909116815260200161017d565b610277610272366004611cb4565b610bfb565b60405161017d9190611f53565b61022d610292366004611cb4565b610ce2565b61022d6102a5366004611f7b565b610e35565b61020c6102b8366004611fb8565b6001600160a01b031660009081526020819052604090205490565b61022d6102e1366004611cb4565b6111e7565b6101d86040518060400160405280600381526020016223a7ab60e91b81525081565b61022d610316366004611cb4565b6114e0565b61020c610329366004611fb8565b6001600160a01b031660009081526001602052604090205490565b6101f8610352366004611dd0565b611604565b61020c60055481565b61020c61036e366004611fd3565b6001600160a01b03918216600090815260026020908152604080832093909416825291909152205490565b61022d6103a7366004611cb4565b61170a565b61042c6103ba366004612006565b60408051606081018252600080825260208201819052918101919091525060009182526009602090815260408084206001600160a01b03939093168452918152918190208151606081018352815460ff8082161515835261010090910416151593810193909352600101549082015290565b60408051825115158152602080840151151590820152918101519082015260600161017d565b610465610460366004611cb4565b6119b7565b60405161017d9190612029565b600860205260009081526040902080546001820154600283015460038401546004850154600586015460068701805496976001600160a01b03909616969495939460ff80851695610100909504169391906104cc9061208d565b80601f01602080910402602001604051908101604052809291908181526020018280546104f89061208d565b80156105455780601f1061051a57610100808354040283529160200191610545565b820191906000526020600020905b81548152906001019060200180831161052857829003601f168201915b50505050509080600701805461055a9061208d565b80601f01602080910402602001604051908101604052809291908181526020018280546105869061208d565b80156105d35780601f106105a8576101008083540402835291602001916105d3565b820191906000526020600020905b8154815290600101906020018083116105b657829003601f168201915b50505050509080600801549080600901549080600a015490508c565b3360008181526002602090815260408083206001600160a01b038716808552925280832085905551919290917f8c5be1e5ebec7d5bd14f71427d1e84f3dd0314c0f7b2291e5b200ac8c7c3b9259061064a9086815260200190565b60405180910390a350600192915050565b60065433600090815260016020908152604080832054918390529091205461068391906120d8565b10156107155760405162461bcd60e51b815260206004820152605060248201527f476f7665726e616e63653a3a70726f706f73653a205573657220646f65736e2760448201527f7420686176652073756666696369656e7420746f6b656e20746f20637265617460648201526f194818481b995dc81c1c9bdc1bdcd85b60821b608482015260a4015b60405180910390fd5b600061072330600654611604565b90508061078e5760405162461bcd60e51b815260206004820152603360248201527f476f7665726e616e63653a3a70726f706f73653a204661696c75726520696e206044820152727472616e7366657272696e6720746f6b656e7360681b606482015260840161070c565b6005541561084a5760006107a3600554610bfb565b905060008160038111156107b9576107b9611f3d565b14156108485760405162461bcd60e51b815260206004820152605260248201527f476f7665726e616e63653a3a70726f706f73653a206f6e65206c69766520707260448201527f6f706f73616c20617420612074696d652c20666f756e6420616e20616c726561606482015271191e481858dd1a5d99481c1c9bdc1bdcd85b60721b608482015260a40161070c565b505b6005805490600061085a836120ef565b919050555060006040518061018001604052806005548152602001336001600160a01b031681526020016000815260200160008152602001600015158152602001600015158152602001600081526020018481526020018581526020014281526020014281526020014260786108d0919061210a565b9052805160009081526008602090815260409182902083518155818401516001820180546001600160a01b039092166001600160a01b031990921691909117905591830151600283015560608301516003830155608083015160048301805460a086015115156101000261ff00199315159390931661ffff199091161791909117905560c0830151600583015560e0830151805193945084936109799260068501920190611c1b565b506101008201518051610996916007840191602090910190611c1b565b506101208201518160080155610140820151816009015561016082015181600a01559050507fbd04b5479c6dd97d2cc7727f90a20fe21ccf7121f4f9fdc04a755ee528efeb4481600001513385878561012001516040516109fb959493929190612122565b60405180910390a150505050565b6001600160a01b0383166000908152600260209081526040808320338452909152812054821115610a885760405162461bcd60e51b8152602060048201526024808201527f476f7665726e616e63653a3a7472616e7366657246726f6d3a4e6f7420416c6c6044820152631bddd95960e21b606482015260840161070c565b6001600160a01b0384166000908152600160209081526040808320549183905290912054610ab691906120d8565b821115610b1a5760405162461bcd60e51b815260206004820152602c60248201527f476f7665726e616e63653a3a7472616e7366657246726f6d3a496e737566666960448201526b6369656e7420746f6b656e7360a01b606482015260840161070c565b6001600160a01b038416600090815260208190526040902054610b3d9083611adb565b6001600160a01b038516600090815260208181526040808320939093556002815282822033835290522054610b729083611adb565b6001600160a01b0380861660009081526002602090815260408083203384528252808320949094559186168152908190522054610baf9083611afe565b6001600160a01b0384811660008181526020818152604091829020949094555185815290929187169160008051602061219e833981519152910160405180910390a35060019392505050565b60008160055410158015610c0f5750600082115b610c6a5760405162461bcd60e51b815260206004820152602660248201527f476f7665726e616e63653a3a73746174653a20696e76616c69642070726f706f6044820152651cd85b081a5960d21b606482015260840161070c565b6000828152600860205260409020600481015460ff1615610c8e5750600192915050565b6004810154610100900460ff1615610cd35780600301548160020154118015610cbc575061012c8160020154115b15610cca5750600292915050565b50600392915050565b50600092915050565b50919050565b33610d445760405162461bcd60e51b815260206004820152602c60248201527f476f7665726e616e63653a3a6275726e3a206275726e2066726f6d207468652060448201526b7a65726f206164647265737360a01b606482015260840161070c565b3360009081526001602090815260408083205491839052909120548291610d6a916120d8565b1015610dce5760405162461bcd60e51b815260206004820152602d60248201527f476f7665726e616e63653a3a6275726e3a206275726e20616d6f756e7420657860448201526c63656564732062616c616e636560981b606482015260840161070c565b3360009081526020819052604081208054839290610ded9084906120d8565b925050819055508060036000828254610e0691906120d8565b9091555050604051818152600090339060008051602061219e833981519152906020015b60405180910390a350565b8260055410158015610e475750600083115b610ea55760405162461bcd60e51b815260206004820152602960248201527f476f7665726e616e63653a3a63617374566f74653a20696e76616c69642070726044820152681bdc1bdcd85b081a5960ba1b606482015260840161070c565b6000838152600860205260409020600a810154421115610f1d5760405162461bcd60e51b815260206004820152602d60248201527f476f7665726e616e63653a3a63617374566f74653a20566f74696e672070657260448201526c1a5bd9081a185cc8195b991959609a1b606482015260840161070c565b3360009081526001602090815260408083205491839052909120548391610f43916120d8565b1015610fb9576040805162461bcd60e51b81526020600482015260248101919091527f476f7665726e616e63653a3a63617374566f74653a205573657220646f65736e60448201527f277420686176652073756666696369656e7420746f6b656e20746f20766f7465606482015260840161070c565b60008481526009602090815260408083203384529091529020805460ff161580610ff05750805460ff610100909104161515841515145b6110625760405162461bcd60e51b815260206004820152603960248201527f476f7665726e616e63653a3a63617374566f74653a20596f752063616e27742060448201527f6361737420766f746520746f20626f7468206f7574636f6d6500000000000000606482015260840161070c565b805460ff1615156001141561108b57828160010154611081919061210a565b60018201556110e7565b80548415156101000261ffff19909116176001908117825581018390556000858152600a6020908152604080832060058601805485529252822080546001600160a01b031916331790558054916110e1836120ef565b91905055505b83156111065760028201546110fc9084611afe565b600283015561111b565b60038201546111159084611afe565b60038301555b336000908152600160205260408120805485929061113a90849061210a565b9091555050600085815260096020908152604080832033808552908352928190208454815460ff19811660ff92831615159081178455875461ffff1990921661ff00199091161761010091829004909216151502178155600180860154910155805192835290820187905285151590820152606081018490527f877856338e13f63d0c36822ff0ef736b80934cd90574a3a5bc9262c39d217c469060800160405180910390a15050505050565b80600554101580156111f95750600081115b61125c5760405162461bcd60e51b815260206004820152602e60248201527f476f7665726e616e63653a3a6465636c617265526573756c743a20696e76616c60448201526d1a59081c1c9bdc1bdcd85b081a5960921b606482015260840161070c565b6000818152600860205260409020600a81015442116112e35760405162461bcd60e51b815260206004820152603a60248201527f476f7665726e616e63653a3a6465636c617265526573756c743a20566f74696e60448201527f6720706572696f6420686173206e6f742079657420656e646564000000000000606482015260840161070c565b60006112ee83610bfb565b9050600181600381111561130457611304611f3d565b141561136a5760405162461bcd60e51b815260206004820152602f60248201527f476f7665726e616e63653a3a6465636c617265526573756c743a2050726f736f60448201526e1cd85b081a5cc818d85b98d95b1959608a1b606482015260840161070c565b600281600381111561137e5761137e611f3d565b1415801561139e5750600381600381111561139b5761139b611f3d565b14155b6114065760405162461bcd60e51b815260206004820152603360248201527f476f7665726e616e63653a3a6465636c617265526573756c743a20526573756c6044820152721d08185b1c9958591e48185b9b9bdd5b98d959606a1b606482015260840161070c565b60005b826005015481101561147c576000848152600960209081526040808320600a83528184208585528352818420546001600160a01b03168452825280832060018082015493529083208054919390916114629084906120d8565b909155508291506114749050816120ef565b915050611409565b5060048201805461ff00191661010017905560075461149c903390611b1d565b50816003015482600201541180156114b9575061012c8260020154115b156114db5760018201546006546114d9916001600160a01b031690611b1d565b505b505050565b6004546001600160a01b031633146115465760405162461bcd60e51b815260206004820152602360248201527f4f6e6c792063726561746f722063616e2063616c6c20746869732066756e637460448201526234b7b760e91b606482015260840161070c565b336115a65760405162461bcd60e51b815260206004820152602a60248201527f476f7665726e616e63653a3a6d696e743a206d696e7420746f20746865207a65604482015269726f206164647265737360b01b606482015260840161070c565b80600360008282546115b8919061210a565b909155505033600090815260208190526040812080548392906115dc90849061210a565b9091555050604051818152339060009060008051602061219e83398151915290602001610e2a565b336000908152600160209081526040808320549183905282205461162891906120d8565b8211156116885760405162461bcd60e51b815260206004820152602860248201527f476f7665726e616e63653a3a7472616e736665723a496e73756666696369656e6044820152677420746f6b656e7360c01b606482015260840161070c565b336000908152602081905260409020546116a29083611adb565b33600090815260208190526040808220929092556001600160a01b038516815220546116ce9083611afe565b6001600160a01b0384166000818152602081815260409182902093909355518481529091339160008051602061219e833981519152910161064a565b806005541015801561171c5750600081115b6117805760405162461bcd60e51b815260206004820152602f60248201527f476f7665726e616e63653a3a63616e63656c50726f706f73616c3a20696e766160448201526e1b1a59081c1c9bdc1bdcd85b081a59608a1b606482015260840161070c565b600081815260086020526040902060018101546001600160a01b03163314611812576040805162461bcd60e51b81526020600482015260248101919091527f476f7665726e616e63653a3a63616e63656c50726f706f73616c3a206f6e6c7960448201527f2063726561746f722063616e2063616e63656c207468652070726f706f73616c606482015260840161070c565b80600a0154421061189d5760405162461bcd60e51b815260206004820152604960248201527f476f7665726e616e63653a3a63616e63656c50726f706f73616c3a2050726f7060448201527f6f73616c2063616e6e6f742062652043616e63656c656420616674657220766f60648201526874696e672074696d6560b81b608482015260a40161070c565b60006118a883610bfb565b905060018160038111156118be576118be611f3d565b14156119325760405162461bcd60e51b815260206004820152603760248201527f476f7665726e616e63653a3a6465636c617265526573756c743a2050726f736f60448201527f73616c20697320616c72656164792063616e63656c6564000000000000000000606482015260840161070c565b60048201805460ff1916600117905560005b82600501548110156114d9576000848152600960209081526040808320600a83528184208585528352818420546001600160a01b031684528252808320600180820154935290832080549193909161199d9084906120d8565b909155508291506119af9050816120ef565b915050611944565b6000818152600860205260408120600501546060918167ffffffffffffffff8111156119e5576119e5611dfa565b604051908082528060200260200182016040528015611a3057816020015b6040805160608101825260008082526020808301829052928201528252600019909201910181611a035790505b50905060005b82811015611ad357604080516060810182526000878152600a60209081528382208583528152838220546001600160a01b0316808452898352600982528483208184528083528584208054610100900460ff161515848701529190935291905260010154918101919091528251839083908110611ab557611ab5612171565b60200260200101819052508080611acb906120ef565b915050611a36565b509392505050565b600082821115611aed57611aed612187565b611af782846120d8565b9392505050565b600080611b0b838561210a565b905083811015611af757611af7612187565b30600090815260208190526040812054821115611b995760405162461bcd60e51b815260206004820152603460248201527f476f7665726e616e63653a3a7472616e7366657246726f6d436f6e74726163746044820152733a496e73756666696369656e7420746f6b656e7360601b606482015260840161070c565b30600090815260208190526040902054611bb39083611adb565b30600090815260208190526040808220929092556001600160a01b03851681522054611bdf9083611afe565b6001600160a01b0384166000818152602081815260409182902093909355518481529091309160008051602061219e833981519152910161064a565b828054611c279061208d565b90600052602060002090601f016020900481019282611c495760008555611c8f565b82601f10611c6257805160ff1916838001178555611c8f565b82800160010185558215611c8f579182015b82811115611c8f578251825591602001919060010190611c74565b50611c9b929150611c9f565b5090565b5b80821115611c9b5760008155600101611ca0565b600060208284031215611cc657600080fd5b5035919050565b6000815180845260005b81811015611cf357602081850181015186830182015201611cd7565b81811115611d05576000602083870101525b50601f01601f19169290920160200192915050565b60006101808e835260018060a01b038e1660208401528c60408401528b60608401528a1515608084015289151560a08401528860c08401528060e0840152611d6481840189611ccd565b9050828103610100840152611d798188611ccd565b6101208401969096525050610140810192909252610160909101529998505050505050505050565b602081526000611af76020830184611ccd565b80356001600160a01b0381168114611dcb57600080fd5b919050565b60008060408385031215611de357600080fd5b611dec83611db4565b946020939093013593505050565b634e487b7160e01b600052604160045260246000fd5b600082601f830112611e2157600080fd5b813567ffffffffffffffff80821115611e3c57611e3c611dfa565b604051601f8301601f19908116603f01168101908282118183101715611e6457611e64611dfa565b81604052838152866020858801011115611e7d57600080fd5b836020870160208301376000602085830101528094505050505092915050565b60008060408385031215611eb057600080fd5b823567ffffffffffffffff80821115611ec857600080fd5b611ed486838701611e10565b93506020850135915080821115611eea57600080fd5b50611ef785828601611e10565b9150509250929050565b600080600060608486031215611f1657600080fd5b611f1f84611db4565b9250611f2d60208501611db4565b9150604084013590509250925092565b634e487b7160e01b600052602160045260246000fd5b6020810160048310611f7557634e487b7160e01b600052602160045260246000fd5b91905290565b600080600060608486031215611f9057600080fd5b8335925060208401358015158114611fa757600080fd5b929592945050506040919091013590565b600060208284031215611fca57600080fd5b611af782611db4565b60008060408385031215611fe657600080fd5b611fef83611db4565b9150611ffd60208401611db4565b90509250929050565b6000806040838503121561201957600080fd5b82359150611ffd60208401611db4565b602080825282518282018190526000919060409081850190868401855b8281101561208057815180516001600160a01b03168552868101511515878601528501518585015260609093019290850190600101612046565b5091979650505050505050565b600181811c908216806120a157607f821691505b60208210811415610cdc57634e487b7160e01b600052602260045260246000fd5b634e487b7160e01b600052601160045260246000fd5b6000828210156120ea576120ea6120c2565b500390565b6000600019821415612103576121036120c2565b5060010190565b6000821982111561211d5761211d6120c2565b500190565b8581526001600160a01b038516602082015260a06040820181905260009061214c90830186611ccd565b828103606084015261215e8186611ccd565b9150508260808301529695505050505050565b634e487b7160e01b600052603260045260246000fd5b634e487b7160e01b600052600160045260246000fdfeddf252ad1be2c89b69c2b068fc378daa952ba7f163c4a11628f55a4df523b3efa2646970667358221220812242ef21ae097b0c85ce95ec41439b4ad4b774c90f91ccf772e3b44761a03864736f6c634300080b0033",
  "immutableReferences": {},
  "source": "// SPDX-License-Identifier: MIT\r\npragma solidity ^0.8.6;\r\n\r\ninterface IERC20 {\r\n    function totalSupply() external view returns (uint256);\r\n\r\n    function balanceOf(address account) external view returns (uint256);\r\n\r\n    function allowance(address owner, address spender)\r\n        external\r\n        view\r\n        returns (uint256);\r\n\r\n    function transfer(address recipient, uint256 amount)\r\n        external\r\n        returns (bool);\r\n\r\n    function approve(address spender, uint256 amount) external returns (bool);\r\n\r\n    function transferFrom(\r\n        address sender,\r\n        address recipient,\r\n        uint256 amount\r\n    ) external returns (bool);\r\n\r\n    //     event Transfer(address indexed from, address indexed to, uint256 value);\r\n    //     event Approval(address indexed owner, address indexed spender, uint256 value);\r\n    //\r\n}\r\n\r\ncontract GovToken is IERC20 {\r\n    string public constant name = \"GOVToken\";\r\n    string public constant symbol = \"GOV\";\r\n    uint8 public constant decimals = 2;\r\n\r\n    event Approval(\r\n        address indexed tokenOwner,\r\n        address indexed spender,\r\n        uint256 tokens\r\n    );\r\n    event Transfer(address indexed from, address indexed to, uint256 tokens);\r\n\r\n    mapping(address => uint256) balances;\r\n    mapping(address => uint256) locked;\r\n\r\n    mapping(address => mapping(address => uint256)) allowed;\r\n\r\n    uint256 _totalSupply = 10000;\r\n    address public creator;\r\n\r\n    using SafeMath for uint256;\r\n\r\n    constructor() {\r\n        balances[msg.sender] = (_totalSupply * 20) / 100;\r\n        balances[address(this)] = (_totalSupply * 40) / 100;\r\n        creator = msg.sender;\r\n    }\r\n\r\n    modifier onlyCreator() {\r\n        require(msg.sender == creator, \"Only creator can call this function\");\r\n        _;\r\n    }\r\n\r\n    function totalSupply() public view override returns (uint256) {\r\n        return _totalSupply;\r\n    }\r\n\r\n    function balanceOf(address tokenOwner)\r\n        public\r\n        view\r\n        override\r\n        returns (uint256)\r\n    {\r\n        return balances[tokenOwner];\r\n    }\r\n\r\n    function lockedOf(address tokenOwner) public view returns (uint256) {\r\n        return locked[tokenOwner];\r\n    }\r\n\r\n    function transfer(address receiver, uint256 numTokens)\r\n        public\r\n        override\r\n        returns (bool)\r\n    {\r\n        require(\r\n            numTokens <= balances[msg.sender] - locked[msg.sender],\r\n            \"Governance::transfer:Insufficient tokens\"\r\n        );\r\n        balances[msg.sender] = balances[msg.sender].sub(numTokens);\r\n        balances[receiver] = balances[receiver].add(numTokens);\r\n        emit Transfer(msg.sender, receiver, numTokens);\r\n        return true;\r\n    }\r\n\r\n    function transferFromContract(address receiver, uint256 numTokens)\r\n        internal\r\n        returns (bool)\r\n    {\r\n        require(\r\n            numTokens <= balances[address(this)],\r\n            \"Governance::transferFromContract:Insufficient tokens\"\r\n        );\r\n        balances[address(this)] = balances[address(this)].sub(numTokens);\r\n        balances[receiver] = balances[receiver].add(numTokens);\r\n        emit Transfer(address(this), receiver, numTokens);\r\n        return true;\r\n    }\r\n\r\n    function approve(address delegate, uint256 numTokens)\r\n        public\r\n        override\r\n        returns (bool)\r\n    {\r\n        allowed[msg.sender][delegate] = numTokens;\r\n        emit Approval(msg.sender, delegate, numTokens);\r\n        return true;\r\n    }\r\n\r\n    function allowance(address owner, address delegate)\r\n        public\r\n        view\r\n        override\r\n        returns (uint256)\r\n    {\r\n        return allowed[owner][delegate];\r\n    }\r\n\r\n    function transferFrom(\r\n        address owner,\r\n        address receiver,\r\n        uint256 numTokens\r\n    ) public override returns (bool) {\r\n        require(\r\n            numTokens <= allowed[owner][msg.sender],\r\n            \"Governance::transferFrom:Not Allowed\"\r\n        );\r\n        require(\r\n            numTokens <= balances[owner] - locked[owner],\r\n            \"Governance::transferFrom:Insufficient tokens\"\r\n        );\r\n\r\n        balances[owner] = balances[owner].sub(numTokens);\r\n        allowed[owner][msg.sender] = allowed[owner][msg.sender].sub(numTokens);\r\n        balances[receiver] = balances[receiver].add(numTokens);\r\n        emit Transfer(owner, receiver, numTokens);\r\n        return true;\r\n    }\r\n\r\n    function mint(uint256 numTokens) public onlyCreator {\r\n        require(\r\n            msg.sender != address(0),\r\n            \"Governance::mint: mint to the zero address\"\r\n        );\r\n        _totalSupply += numTokens;\r\n        balances[msg.sender] += numTokens;\r\n        emit Transfer(address(0), msg.sender, numTokens);\r\n    }\r\n\r\n    function burn(uint256 numTokens) public {\r\n        require(\r\n            msg.sender != address(0),\r\n            \"Governance::burn: burn from the zero address\"\r\n        );\r\n        require(\r\n            balances[msg.sender] - locked[msg.sender] >= numTokens,\r\n            \"Governance::burn: burn amount exceeds balance\"\r\n        );\r\n        balances[msg.sender] -= numTokens;\r\n        _totalSupply -= numTokens;\r\n\r\n        emit Transfer(msg.sender, address(0), numTokens);\r\n    }\r\n\r\n    uint256 public proposalCount;\r\n    uint256 tokensReqdForProposal = 100;\r\n    uint256 declaringResultReward = 50;\r\n\r\n    function quorumVotes() public pure returns (uint256) {\r\n        return 300;\r\n    }\r\n\r\n    /// @notice The total number of proposals\r\n    struct Proposal {\r\n        //  Unique id for looking up a proposal\r\n        uint256 id;\r\n        //  Creator of the proposal\r\n        address proposer;\r\n        //  Current number of votes in favor of this proposal\r\n        uint256 forVotes;\r\n        //  Current number of votes in opposition to this proposal\r\n        uint256 againstVotes;\r\n        //  Flag marking whether the proposal has been canceled\r\n        bool canceled;\r\n        //  Flag marking whether the proposal has been announced\r\n        bool announced;\r\n        uint256 voterCount;\r\n        // description  of the proposal\r\n        string description;\r\n        //title  of the proposal\r\n        string title;\r\n        //creation date\r\n        uint256 dateOfCreation;\r\n        //cancellation date or announcement date\r\n        uint256 date;\r\n        // Deadln=ine for voting\r\n        uint256 deadlineForVoting;\r\n    }\r\n    /// @notice Ballot receipt record for a voter\r\n    struct Receipt {\r\n        //  Hether or not a vote has been cast\r\n        bool hasVoted;\r\n        //  Whether or not the voter supports the proposal\r\n        bool support;\r\n        //  The number of votes the voter had, which were cast\r\n        uint256 votes;\r\n    }\r\n\r\n    // The official record of all proposals ever proposed\r\n    mapping(uint256 => Proposal) public proposals;\r\n\r\n    // To store receipts of all voters on all proposals\r\n    // proposalId => (voterAddress => Receipt)\r\n    mapping(uint256 => mapping(address => Receipt)) receipts;\r\n\r\n    // To store all voters on all proposals\r\n    // proposalId => (voterIndex => voterAddress)\r\n    mapping(uint256 => mapping(uint256 => address)) voters;\r\n\r\n    /// @notice Possible states that a proposal may be in\r\n    enum ProposalState {\r\n        Active,\r\n        Canceled,\r\n        Accepted,\r\n        Rejected\r\n    }\r\n\r\n    /// @notice An event emitted when a new proposal is created\r\n    event ProposalCreated(\r\n        uint256 id,\r\n        address proposer,\r\n        string description,\r\n        string title,\r\n        uint256 dateOfCreation\r\n    );\r\n\r\n    /// @notice An event emitted when a vote has been cast on a proposal\r\n    event VoteCast(\r\n        address voter,\r\n        uint256 proposalId,\r\n        bool support,\r\n        uint256 votes\r\n    );\r\n\r\n    function propose(string memory title, string memory description) external {\r\n        require(\r\n            balances[msg.sender] - locked[msg.sender] >= tokensReqdForProposal,\r\n            \"Governance::propose: User doesn't have sufficient token to create a new proposal\"\r\n        );\r\n        bool sent = transfer(address(this), tokensReqdForProposal);\r\n        require(sent, \"Governance::propose: Failure in transferring tokens\");\r\n\r\n        if (proposalCount != 0) {\r\n            ProposalState latestProposalState = state(proposalCount);\r\n            require(\r\n                latestProposalState != ProposalState.Active,\r\n                \"Governance::propose: one live proposal at a time, found an already active proposal\"\r\n            );\r\n        }\r\n\r\n        proposalCount++;\r\n        Proposal memory newProposal = Proposal({\r\n            id: proposalCount,\r\n            proposer: msg.sender,\r\n            description: description,\r\n            forVotes: 0,\r\n            againstVotes: 0,\r\n            canceled: false,\r\n            announced: false,\r\n            deadlineForVoting: block.timestamp + 2 minutes,\r\n            voterCount: 0,\r\n            title: title,\r\n            dateOfCreation: block.timestamp,\r\n            date: block.timestamp\r\n        });\r\n\r\n        proposals[newProposal.id] = newProposal;\r\n        emit ProposalCreated(\r\n            newProposal.id,\r\n            msg.sender,\r\n            description,\r\n            title,\r\n            newProposal.dateOfCreation\r\n        );\r\n    }\r\n\r\n    function getReceipt(uint256 proposalId, address voter)\r\n        external\r\n        view\r\n        returns (Receipt memory)\r\n    {\r\n        return receipts[proposalId][voter];\r\n    }\r\n\r\n    function state(uint256 proposalId) public view returns (ProposalState) {\r\n        require(\r\n            proposalCount >= proposalId && proposalId > 0,\r\n            \"Governance::state: invalid proposal id\"\r\n        );\r\n        Proposal storage proposal = proposals[proposalId];\r\n        if (proposal.canceled) {\r\n            return ProposalState.Canceled;\r\n        } else if (proposal.announced) {\r\n            if (\r\n                proposal.forVotes > proposal.againstVotes &&\r\n                proposal.forVotes > quorumVotes()\r\n            ) {\r\n                return ProposalState.Accepted;\r\n            } else {\r\n                return ProposalState.Rejected;\r\n            }\r\n        } else {\r\n            return ProposalState.Active;\r\n        }\r\n    }\r\n\r\n    function castVote(\r\n        uint256 proposalId,\r\n        bool support,\r\n        uint256 votes\r\n    ) external {\r\n        require(\r\n            proposalCount >= proposalId && proposalId > 0,\r\n            \"Governance::castVote: invalid proposal id\"\r\n        );\r\n        Proposal storage proposal = proposals[proposalId];\r\n        require(\r\n            block.timestamp <= proposal.deadlineForVoting,\r\n            \"Governance::castVote: Voting period has ended\"\r\n        );\r\n        require(\r\n            balances[msg.sender] - locked[msg.sender] >= votes,\r\n            \"Governance::castVote: User doesn't have sufficient token to vote\"\r\n        );\r\n        Receipt storage receipt = receipts[proposalId][msg.sender];\r\n        require(\r\n            (receipt.hasVoted == false || receipt.support == support),\r\n            \"Governance::castVote: You can't cast vote to both outcome\"\r\n        );\r\n\r\n        if (receipt.hasVoted == true) {\r\n            receipt.votes = receipt.votes + votes;\r\n        } else {\r\n            receipt.hasVoted = true;\r\n            receipt.support = support;\r\n            receipt.votes = votes;\r\n            voters[proposalId][proposal.voterCount] = msg.sender;\r\n            proposal.voterCount++;\r\n        }\r\n        if (support) {\r\n            proposal.forVotes = proposal.forVotes.add(votes);\r\n        } else {\r\n            proposal.againstVotes = proposal.againstVotes.add(votes);\r\n        }\r\n\r\n        locked[msg.sender] += votes;\r\n        receipts[proposalId][msg.sender] = receipt;\r\n        emit VoteCast(msg.sender, proposalId, support, votes);\r\n    }\r\n\r\n    function declareResult(uint256 proposalId) external {\r\n        require(\r\n            proposalCount >= proposalId && proposalId > 0,\r\n            \"Governance::declareResult: invalid proposal id\"\r\n        );\r\n        Proposal storage proposal = proposals[proposalId];\r\n        require(\r\n            block.timestamp > proposal.deadlineForVoting,\r\n            \"Governance::declareResult: Voting period has not yet ended\"\r\n        );\r\n        ProposalState _ProposalState = state(proposalId);\r\n        require(\r\n            _ProposalState != ProposalState.Canceled,\r\n            \"Governance::declareResult: Prososal is canceled\"\r\n        );\r\n        require(\r\n            _ProposalState != ProposalState.Accepted &&\r\n                _ProposalState != ProposalState.Rejected,\r\n            \"Governance::declareResult: Result already announced\"\r\n        );\r\n\r\n        for (uint256 i = 0; i < proposal.voterCount; i++) {\r\n            Receipt storage receipt = receipts[proposalId][\r\n                voters[proposalId][i]\r\n            ];\r\n            locked[voters[proposalId][i]] -= receipt.votes;\r\n        }\r\n        proposal.announced = true;\r\n        transferFromContract(msg.sender, declaringResultReward);\r\n        if (\r\n            proposal.forVotes > proposal.againstVotes &&\r\n            proposal.forVotes > quorumVotes()\r\n        ) {\r\n            //winning\r\n            transferFromContract(proposal.proposer, tokensReqdForProposal);\r\n        }\r\n    }\r\n\r\n    function cancelProposal(uint256 proposalId) external {\r\n        require(\r\n            proposalCount >= proposalId && proposalId > 0,\r\n            \"Governance::cancelProposal: invalid proposal id\"\r\n        );\r\n        Proposal storage proposal = proposals[proposalId];\r\n        require(\r\n            msg.sender == proposal.proposer,\r\n            \"Governance::cancelProposal: only creator can cancel the proposal\"\r\n        );\r\n        require(\r\n            block.timestamp < proposal.deadlineForVoting,\r\n            \"Governance::cancelProposal: Proposal cannot be Canceled after voting time\"\r\n        );\r\n        ProposalState _ProposalState = state(proposalId);\r\n        require(\r\n            _ProposalState != ProposalState.Canceled,\r\n            \"Governance::declareResult: Prososal is already canceled\"\r\n        );\r\n        proposal.canceled = true;\r\n        for (uint256 i = 0; i < proposal.voterCount; i++) {\r\n            Receipt storage receipt = receipts[proposalId][\r\n                voters[proposalId][i]\r\n            ];\r\n            locked[voters[proposalId][i]] -= receipt.votes;\r\n        }\r\n    }\r\n\r\n    struct Vote {\r\n        address voterAddress;\r\n        bool support;\r\n        uint256 votes;\r\n    }\r\n\r\n    function getVotes(uint256 proposalId) public view returns (Vote[] memory) {\r\n        uint256 voterCount = proposals[proposalId].voterCount;\r\n        Vote[] memory votes = new Vote[](voterCount);\r\n        for (uint256 i = 0; i < voterCount; i++) {\r\n            votes[i] = Vote(\r\n                voters[proposalId][i],\r\n                receipts[proposalId][voters[proposalId][i]].support,\r\n                receipts[proposalId][voters[proposalId][i]].votes\r\n            );\r\n        }\r\n        return votes;\r\n    }\r\n}\r\n\r\nlibrary SafeMath {\r\n    function sub(uint256 a, uint256 b) internal pure returns (uint256) {\r\n        assert(b <= a);\r\n        return a - b;\r\n    }\r\n\r\n    function add(uint256 a, uint256 b) internal pure returns (uint256) {\r\n        uint256 c = a + b;\r\n        assert(c >= a);\r\n        return c;\r\n    }\r\n}\r\n",
  "sourcePath": "C:\\Users\\ankur\\Desktop\\Projects\\governance-dapp\\contracts\\GovToken.sol",
  "compiler": {
    "name": "solc",
    "version": "0.8.11+commit.d7f03943.Emscripten.clang"
  },
  "schemaVersion": "3.4.4",
  "updatedAt": "2022-01-01T13:48:10.517Z",
  "networkType": "ethereum",
  "devdoc": {
    "kind": "dev",
    "methods": {},
    "version": 1
  },
  "userdoc": {
    "events": {
      "ProposalCreated(uint256,address,string,string,uint256)": {
        "notice": "An event emitted when a new proposal is created"
      },
      "VoteCast(address,uint256,bool,uint256)": {
        "notice": "An event emitted when a vote has been cast on a proposal"
      }
    },
    "kind": "user",
    "methods": {},
    "version": 1
  }
}